{
  "contractName": "VersionControl",
  "abi": [
    {
      "constant": true,
      "inputs": [],
      "name": "deployThreshold",
      "outputs": [
        {
          "name": "",
          "type": "uint256"
        }
      ],
      "payable": false,
      "stateMutability": "view",
      "type": "function"
    },
    {
      "constant": true,
      "inputs": [],
      "name": "owner",
      "outputs": [
        {
          "name": "",
          "type": "address"
        }
      ],
      "payable": false,
      "stateMutability": "view",
      "type": "function"
    },
    {
      "constant": true,
      "inputs": [
        {
          "name": "",
          "type": "uint256"
        }
      ],
      "name": "bytecodeMap",
      "outputs": [
        {
          "name": "",
          "type": "bytes"
        }
      ],
      "payable": false,
      "stateMutability": "view",
      "type": "function"
    },
    {
      "constant": true,
      "inputs": [],
      "name": "currentVersion",
      "outputs": [
        {
          "name": "",
          "type": "uint256"
        }
      ],
      "payable": false,
      "stateMutability": "view",
      "type": "function"
    },
    {
      "constant": true,
      "inputs": [],
      "name": "factory",
      "outputs": [
        {
          "name": "",
          "type": "address"
        }
      ],
      "payable": false,
      "stateMutability": "view",
      "type": "function"
    },
    {
      "constant": true,
      "inputs": [
        {
          "name": "",
          "type": "bytes32"
        }
      ],
      "name": "users",
      "outputs": [
        {
          "name": "bytecodeVersion",
          "type": "uint256"
        },
        {
          "name": "walletAddress",
          "type": "address"
        },
        {
          "name": "deployed",
          "type": "bool"
        },
        {
          "name": "exists",
          "type": "bool"
        },
        {
          "name": "upgradeAddress",
          "type": "address"
        },
        {
          "name": "upgradeVersion",
          "type": "uint256"
        },
        {
          "name": "upgrading",
          "type": "bool"
        }
      ],
      "payable": false,
      "stateMutability": "view",
      "type": "function"
    },
    {
      "inputs": [
        {
          "name": "_address",
          "type": "address"
        },
        {
          "name": "_bytecode",
          "type": "bytes"
        }
      ],
      "payable": false,
      "stateMutability": "nonpayable",
      "type": "constructor"
    },
    {
      "anonymous": false,
      "inputs": [
        {
          "indexed": false,
          "name": "username",
          "type": "string"
        },
        {
          "indexed": false,
          "name": "contractAddress",
          "type": "address"
        },
        {
          "indexed": false,
          "name": "version",
          "type": "uint256"
        }
      ],
      "name": "DeployedWallet",
      "type": "event"
    },
    {
      "anonymous": false,
      "inputs": [
        {
          "indexed": false,
          "name": "username",
          "type": "string"
        },
        {
          "indexed": false,
          "name": "oldContractAddress",
          "type": "address"
        },
        {
          "indexed": false,
          "name": "oldVersion",
          "type": "uint256"
        },
        {
          "indexed": false,
          "name": "newContractAddress",
          "type": "address"
        },
        {
          "indexed": false,
          "name": "newVersion",
          "type": "uint256"
        }
      ],
      "name": "UpgradedWallet",
      "type": "event"
    },
    {
      "anonymous": false,
      "inputs": [
        {
          "indexed": false,
          "name": "username",
          "type": "string"
        },
        {
          "indexed": false,
          "name": "contractAddress",
          "type": "address"
        },
        {
          "indexed": false,
          "name": "version",
          "type": "uint256"
        }
      ],
      "name": "NewUser",
      "type": "event"
    },
    {
      "anonymous": false,
      "inputs": [
        {
          "indexed": true,
          "name": "oldOwner",
          "type": "address"
        },
        {
          "indexed": true,
          "name": "newOwner",
          "type": "address"
        }
      ],
      "name": "OwnershipChanged",
      "type": "event"
    },
    {
      "constant": false,
      "inputs": [
        {
          "name": "_owner",
          "type": "address"
        }
      ],
      "name": "setOwner",
      "outputs": [],
      "payable": false,
      "stateMutability": "nonpayable",
      "type": "function"
    },
    {
      "constant": false,
      "inputs": [
        {
          "name": "_bytecode",
          "type": "bytes"
        }
      ],
      "name": "updateBytecode",
      "outputs": [],
      "payable": false,
      "stateMutability": "nonpayable",
      "type": "function"
    },
    {
      "constant": false,
      "inputs": [
        {
          "name": "_username",
          "type": "string"
        },
        {
          "name": "_salt",
          "type": "bytes32"
        },
        {
          "name": "_owner",
          "type": "address"
        }
      ],
      "name": "deployWallet",
      "outputs": [],
      "payable": false,
      "stateMutability": "nonpayable",
      "type": "function"
    },
    {
      "constant": false,
      "inputs": [
        {
          "name": "_username",
          "type": "string"
        },
        {
          "name": "_salt",
          "type": "bytes32"
        },
        {
          "name": "_owner",
          "type": "address"
        }
      ],
      "name": "upgradeWallet",
      "outputs": [],
      "payable": false,
      "stateMutability": "nonpayable",
      "type": "function"
    },
    {
      "constant": false,
      "inputs": [
        {
          "name": "_username",
          "type": "string"
        },
        {
          "name": "_address",
          "type": "address"
        }
      ],
      "name": "addUser",
      "outputs": [],
      "payable": false,
      "stateMutability": "nonpayable",
      "type": "function"
    },
    {
      "constant": false,
      "inputs": [
        {
          "name": "_username",
          "type": "string"
        },
        {
          "name": "_address",
          "type": "address"
        }
      ],
      "name": "upgradeUser",
      "outputs": [],
      "payable": false,
      "stateMutability": "nonpayable",
      "type": "function"
    },
    {
      "constant": true,
      "inputs": [
        {
          "name": "_username",
          "type": "string"
        }
      ],
      "name": "viewUser",
      "outputs": [
        {
          "name": "",
          "type": "uint256"
        },
        {
          "name": "",
          "type": "address"
        },
        {
          "name": "",
          "type": "bool"
        },
        {
          "name": "",
          "type": "bool"
        },
        {
          "name": "",
          "type": "address"
        },
        {
          "name": "",
          "type": "uint256"
        },
        {
          "name": "",
          "type": "bool"
        }
      ],
      "payable": false,
      "stateMutability": "view",
      "type": "function"
    },
    {
      "constant": true,
      "inputs": [
        {
          "name": "_username",
          "type": "string"
        }
      ],
      "name": "viewBalance",
      "outputs": [
        {
          "name": "",
          "type": "uint256"
        }
      ],
      "payable": false,
      "stateMutability": "view",
      "type": "function"
    },
    {
      "constant": false,
      "inputs": [
        {
          "name": "_username",
          "type": "string"
        },
        {
          "name": "_owner",
          "type": "address"
        }
      ],
      "name": "userOwnership",
      "outputs": [],
      "payable": false,
      "stateMutability": "nonpayable",
      "type": "function"
    },
    {
      "constant": true,
      "inputs": [
        {
          "name": "a",
          "type": "bytes"
        },
        {
          "name": "b",
          "type": "bytes"
        }
      ],
      "name": "MergeBytes",
      "outputs": [
        {
          "name": "c",
          "type": "bytes"
        }
      ],
      "payable": false,
      "stateMutability": "pure",
      "type": "function"
    }
  ],
  "bytecode": "0x6080604052600060015560006003553480156200001b57600080fd5b5060405162001cbb38038062001cbb833981018060405260408110156200004157600080fd5b8151602083018051919392830192916401000000008111156200006357600080fd5b820160208101848111156200007757600080fd5b81516401000000008111828201871017156200009257600080fd5b505060028054336001600160a01b031991821617909155600080549091166001600160a01b038716178155600181905580526005602090815281519194506200010293507f05b8ccbb9d4d8fb16ea74ce3c29a41f1b461fbdaff4714a0d9a8eb05499746bc92508401906200010b565b505050620001b0565b828054600181600116156101000203166002900490600052602060002090601f016020900481019282601f106200014e57805160ff19168380011785556200017e565b828001600101855582156200017e579182015b828111156200017e57825182559160200191906001019062000161565b506200018c92915062000190565b5090565b620001ad91905b808211156200018c576000815560010162000197565b90565b611afb80620001c06000396000f3fe608060405234801561001057600080fd5b50600436106101005760003560e01c8063953d2d6711610097578063cea6ab9811610066578063cea6ab9814610617578063d1f6d4c51461067c578063d3343bcb146107a5578063f3fd43a61461085457610100565b8063953d2d67146104c35780639d888e8614610555578063b4ef94d61461055d578063c45a01551461060f57610100565b806347d90e57116100d357806347d90e571461029a57806355eaf9801461034c578063864a0d0a146103f05780638da5cb5b1461049f57610100565b8063038b2f161461010557806313af4035146101b65780631ff7a505146101dc57806337514297146101f6575b600080fd5b6101b46004803603604081101561011b57600080fd5b810190602081018135600160201b81111561013557600080fd5b82018360208201111561014757600080fd5b803590602001918460018302840111600160201b8311171561016857600080fd5b91908080601f016020809104026020016040519081016040528093929190818152602001838380828437600092019190915250929550505090356001600160a01b031691506108f89050565b005b6101b4600480360360208110156101cc57600080fd5b50356001600160a01b0316610a24565b6101e4610a97565b60408051918252519081900360200190f35b6101b46004803603602081101561020c57600080fd5b810190602081018135600160201b81111561022657600080fd5b82018360208201111561023857600080fd5b803590602001918460018302840111600160201b8311171561025957600080fd5b91908080601f016020809104026020016040519081016040528093929190818152602001838380828437600092019190915250929550610a9d945050505050565b6101b4600480360360608110156102b057600080fd5b810190602081018135600160201b8111156102ca57600080fd5b8201836020820111156102dc57600080fd5b803590602001918460018302840111600160201b831117156102fd57600080fd5b91908080601f01602080910402602001604051908101604052809392919081815260200183838082843760009201919091525092955050823593505050602001356001600160a01b0316610aef565b6101e46004803603602081101561036257600080fd5b810190602081018135600160201b81111561037c57600080fd5b82018360208201111561038e57600080fd5b803590602001918460018302840111600160201b831117156103af57600080fd5b91908080601f016020809104026020016040519081016040528093929190818152602001838380828437600092019190915250929550610eaa945050505050565b6101b46004803603604081101561040657600080fd5b810190602081018135600160201b81111561042057600080fd5b82018360208201111561043257600080fd5b803590602001918460018302840111600160201b8311171561045357600080fd5b91908080601f016020809104026020016040519081016040528093929190818152602001838380828437600092019190915250929550505090356001600160a01b03169150610f399050565b6104a76111d6565b604080516001600160a01b039092168252519081900360200190f35b6104e0600480360360208110156104d957600080fd5b50356111e5565b6040805160208082528351818301528351919283929083019185019080838360005b8381101561051a578181015183820152602001610502565b50505050905090810190601f1680156105475780820380516001836020036101000a031916815260200191505b509250505060405180910390f35b6101e4611280565b6101b46004803603606081101561057357600080fd5b810190602081018135600160201b81111561058d57600080fd5b82018360208201111561059f57600080fd5b803590602001918460018302840111600160201b831117156105c057600080fd5b91908080601f01602080910402602001604051908101604052809392919081815260200183838082843760009201919091525092955050823593505050602001356001600160a01b0316611286565b6104a76116cb565b6106346004803603602081101561062d57600080fd5b50356116da565b604080519788526001600160a01b0396871660208901529415158786015292151560608701529316608085015260a084019290925290151560c0830152519081900360e00190f35b6104e06004803603604081101561069257600080fd5b810190602081018135600160201b8111156106ac57600080fd5b8201836020820111156106be57600080fd5b803590602001918460018302840111600160201b831117156106df57600080fd5b91908080601f0160208091040260200160405190810160405280939291908181526020018383808284376000920191909152509295949360208101935035915050600160201b81111561073157600080fd5b82018360208201111561074357600080fd5b803590602001918460018302840111600160201b8311171561076457600080fd5b91908080601f016020809104026020016040519081016040528093929190818152602001838380828437600092019190915250929550611731945050505050565b6101b4600480360360408110156107bb57600080fd5b810190602081018135600160201b8111156107d557600080fd5b8201836020820111156107e757600080fd5b803590602001918460018302840111600160201b8311171561080857600080fd5b91908080601f016020809104026020016040519081016040528093929190818152602001838380828437600092019190915250929550505090356001600160a01b031691506117b59050565b6106346004803603602081101561086a57600080fd5b810190602081018135600160201b81111561088457600080fd5b82018360208201111561089657600080fd5b803590602001918460018302840111600160201b831117156108b757600080fd5b91908080601f0160208091040260200160405190810160405280939291908181526020018383808284376000920191909152509295506118bb945050505050565b6002546001600160a01b0316331461090f57600080fd5b815160208084019190912060008181526004909252604090912060010154839190600160a81b900460ff1661097c5760408051600160e51b62461bcd0281526020600482015260146024820152600080516020611ab0833981519152604482015290519081900360640190fd5b60008181526004602052604090206001548154106109e45760408051600160e51b62461bcd02815260206004820152601960248201527f56657273696f6e20697320757020746f20646f20646174652e00000000000000604482015290519081900360640190fd5b6001805460038301556002820180546001600160a01b0319166001600160a01b039690961695909517909455600401805460ff1916909317909255505050565b6002546001600160a01b03163314610a3b57600080fd5b6002546040516001600160a01b038084169216907f0384899bd253d83b23daa4d29aaa2efe0563d1132b43101e9ad667235aeb951b90600090a3600280546001600160a01b0319166001600160a01b0392909216919091179055565b60035481565b6002546001600160a01b03163314610ab457600080fd5b60018054610ac79163ffffffff61199316565b600181905560009081526005602090815260409091208251610aeb928401906119ac565b5050565b6002546001600160a01b03163314610b0657600080fd5b825160208085019190912060008181526004909252604090912060010154849190600160a81b900460ff16610b735760408051600160e51b62461bcd0281526020600482015260146024820152600080516020611ab0833981519152604482015290519081900360640190fd5b600081815260046020526040902060035460018201546001600160a01b03163111610bd257604051600160e51b62461bcd02815260040180806020018281038252602c815260200180611a84602c913960400191505060405180910390fd5b6000805482548252600560205260408083208151600160e11b63257b1f81028152602481018a905260048101928352815460026000196001831615610100020190911604604482018190526001600160a01b0390941693634af63f02938b92909182916064019085908015610c885780601f10610c5d57610100808354040283529160200191610c88565b820191906000526020600020905b815481529060010190602001808311610c6b57829003601f168201915b50509350505050602060405180830381600087803b158015610ca957600080fd5b505af1158015610cbd573d6000803e3d6000fd5b505050506040513d6020811015610cd357600080fd5b505160018301549091506001600160a01b03808316911614610d3f5760408051600160e51b62461bcd02815260206004820152601e60248201527f57616c6c6574206164647265737320646f6573206e6f74206d617463682e0000604482015290519081900360640190fd5b6001600160a01b03851615610dbe57600182015460408051600160e01b6313af40350281526001600160a01b0388811660048301529151919092169182916313af40359160248082019260009290919082900301818387803b158015610da457600080fd5b505af1158015610db8573d6000803e3d6000fd5b50505050505b7f6b8a171e4fff4fe7f0fdb83e93ff4b9ae92c403d87d9ccd66aa470688e9959ff878284600001546040518080602001846001600160a01b03166001600160a01b03168152602001838152602001828103825285818151815260200191508051906020019080838360005b83811015610e41578181015183820152602001610e29565b50505050905090810190601f168015610e6e5780820380516001836020036101000a031916815260200191505b5094505050505060405180910390a150600101805474ff00000000000000000000000000000000000000001916600160a01b1790555050505050565b8051602080830191909120600081815260049092526040822060010154839190600160a81b900460ff16610f165760408051600160e51b62461bcd0281526020600482015260146024820152600080516020611ab0833981519152604482015290519081900360640190fd5b6000908152600460205260409020600101546001600160a01b0316319392505050565b6002546001600160a01b03163314610f5057600080fd5b815160208084019190912060008181526004909252604090912060010154839190600160a81b900460ff1615610fd05760408051600160e51b62461bcd02815260206004820152601860248201527f557365726e616d6520616c7265616479206578697374732e0000000000000000604482015290519081900360640190fd5b610fd8611a2a565b6040518060e001604052806001548152602001856001600160a01b0316815260200160001515815260200160011515815260200160006001600160a01b03168152602001600154815260200160001515815250905080600460008481526020019081526020016000206000820151816000015560208201518160010160006101000a8154816001600160a01b0302191690836001600160a01b0316021790555060408201518160010160146101000a81548160ff02191690831515021790555060608201518160010160156101000a81548160ff02191690831515021790555060808201518160020160006101000a8154816001600160a01b0302191690836001600160a01b0316021790555060a0820151816003015560c08201518160040160006101000a81548160ff0219169083151502179055509050507ff4d5c0191b52b38292d49ae4c7633f6a49102056eddc7ac27149f4324a7b583985856001546040518080602001846001600160a01b03166001600160a01b03168152602001838152602001828103825285818151815260200191508051906020019080838360005b8381101561119357818101518382015260200161117b565b50505050905090810190601f1680156111c05780820380516001836020036101000a031916815260200191505b5094505050505060405180910390a15050505050565b6002546001600160a01b031681565b60056020908152600091825260409182902080548351601f6002600019610100600186161502019093169290920491820184900484028101840190945280845290918301828280156112785780601f1061124d57610100808354040283529160200191611278565b820191906000526020600020905b81548152906001019060200180831161125b57829003601f168201915b505050505081565b60015481565b6002546001600160a01b0316331461129d57600080fd5b825160208085019190912060008181526004909252604090912060010154849190600160a81b900460ff1661130a5760408051600160e51b62461bcd0281526020600482015260146024820152600080516020611ab0833981519152604482015290519081900360640190fd5b60008181526004602081905260409091209081015460ff166113765760408051600160e51b62461bcd02815260206004820152601d60248201527f55736572206973206e6f7420696e20757067726164652073746167652e000000604482015290519081900360640190fd5b60035460028201546001600160a01b031631116113c757604051600160e51b62461bcd02815260040180806020018281038252602c815260200180611a84602c913960400191505060405180910390fd5b6000805482548252600560205260408083208151600160e11b63257b1f81028152602481018a905260048101928352815460026000196001831615610100020190911604604482018190526001600160a01b0390941693634af63f02938b9290918291606401908590801561147d5780601f106114525761010080835404028352916020019161147d565b820191906000526020600020905b81548152906001019060200180831161146057829003601f168201915b50509350505050602060405180830381600087803b15801561149e57600080fd5b505af11580156114b2573d6000803e3d6000fd5b505050506040513d60208110156114c857600080fd5b505160028301549091506001600160a01b038083169116146115345760408051600160e51b62461bcd02815260206004820152601e60248201527f57616c6c6574206164647265737320646f6573206e6f74206d617463682e0000604482015290519081900360640190fd5b6001600160a01b038516156115b357600182015460408051600160e01b6313af40350281526001600160a01b0388811660048301529151919092169182916313af40359160248082019260009290919082900301818387803b15801561159957600080fd5b505af11580156115ad573d6000803e3d6000fd5b50505050505b6001820154825460028401546003850154604080516001600160a01b03958616602080830182905292820186905293909516606086018190526080860183905260a08087528d51908701528c517fcb51364a7acb98b4906afde0d1745cf27bb540ba2e14d591536a08876759a3f8968e969492939091829160c08301919089019080838360005b8381101561165257818101518382015260200161163a565b50505050905090810190601f16801561167f5780820380516001836020036101000a031916815260200191505b50965050505050505060405180910390a1600382015482556001820180546001600160a01b0319166001600160a01b0392909216919091179055600401805460ff191690555050505050565b6000546001600160a01b031681565b60046020819052600091825260409091208054600182015460028301546003840154939094015491936001600160a01b038083169460ff600160a01b8504811695600160a81b909504811694939092169290911687565b8151815160609190810160006020601f8401049050600060208651601f018161175657fe5b04905060405183815260005b8381101561177e57600101602081028981015190830152611762565b5060005b828110156117a0576001016020810288810151908701830152611782565b50928301602001604052509095945050505050565b6002546001600160a01b031633146117cc57600080fd5b815160208084019190912060008181526004909252604090912060010154839190600160a81b900460ff166118395760408051600160e51b62461bcd0281526020600482015260146024820152600080516020611ab0833981519152604482015290519081900360640190fd5b600081815260046020819052604080832060018101548251600160e01b6313af40350281526001600160a01b03898116958201959095529251919493169283926313af4035926024808301939282900301818387803b15801561189b57600080fd5b505af11580156118af573d6000803e3d6000fd5b50505050505050505050565b8051602080830191909120600081815260049092526040822060010154829182918291829182918291899190600160a81b900460ff166119335760408051600160e51b62461bcd0281526020600482015260146024820152600080516020611ab0833981519152604482015290519081900360640190fd5b600090815260046020819052604090912080546001820154600283015460038401549390940154919d6001600160a01b038083169e5060ff600160a01b840481169e50600160a81b90930483169c50909416995091975016945092505050565b6000828201838110156119a557600080fd5b9392505050565b828054600181600116156101000203166002900490600052602060002090601f016020900481019282601f106119ed57805160ff1916838001178555611a1a565b82800160010185558215611a1a579182015b82811115611a1a5782518255916020019190600101906119ff565b50611a26929150611a66565b5090565b6040805160e081018252600080825260208201819052918101829052606081018290526080810182905260a0810182905260c081019190915290565b611a8091905b80821115611a265760008155600101611a6c565b9056fe57616c6c657420646f6573206e6f74206861766520656e6f7567682066756e647320746f206465706c6f792e5573657220646f6573206e6f742065786973742e000000000000000000000000a165627a7a7230582010a9add7fbe69db0af13e7c805d215ca510aa363bc3122e90be19e8529f1bf5e0029",
  "source": "pragma solidity 0.5.7;\n\nimport \"./SafeMath.sol\";\n\n// Factory interface\ncontract FactoryInterface {\n  function deploy(bytes memory code, bytes32 salt) public returns(address);\n}\n\n// Wallet interface\ncontract WalletInterface {\n  function setOwner(address payable _owner) public;\n}\n\n// Datastore contract\ncontract VersionControl {\n\n  using SafeMath for uint256;\n\n  event DeployedWallet(string username, address contractAddress, uint256 version);\n  event UpgradedWallet(string username, address oldContractAddress, uint256 oldVersion, address newContractAddress, uint256 newVersion);\n  event NewUser(string username, address contractAddress, uint256 version);\n  event OwnershipChanged(address indexed oldOwner, address indexed newOwner);\n\n  FactoryInterface public factory;       // Factory contract address\n  uint256 public currentVersion = 0;     // Keep track of the current version\n  address public owner;\n  uint256 public deployThreshold = 0;\n\n  // struct to hold user data\n  struct User {\n    uint256 bytecodeVersion;\n    address walletAddress;\n    bool deployed;\n    bool exists;\n    address upgradeAddress;\n    uint256 upgradeVersion;\n    bool upgrading;\n  }\n\n  // mapping of usernames\n  mapping(bytes32 => User) public users;\n\n  // mapping of bytecodes to keep track of versions\n  mapping(uint256 => bytes) public bytecodeMap;\n\n  constructor(address _address, bytes memory _bytecode) public {\n    owner = msg.sender;\n    factory = FactoryInterface(_address);\n    currentVersion = 0;\n    bytecodeMap[currentVersion] = _bytecode;\n  }\n\n  // owner modifier\n  modifier onlyOwner() {\n    require(msg.sender == owner);\n    _;\n  }\n\n  // Transfering ownership\n  function setOwner(address _owner) public {\n    require(msg.sender == owner);\n    emit OwnershipChanged(owner, _owner);\n    owner = _owner;\n  }\n\n  // owner can upgrade wallet contract\n  function updateBytecode(bytes memory _bytecode) public onlyOwner {\n    currentVersion = currentVersion.add(1);\n    bytecodeMap[currentVersion] = _bytecode;\n  }\n\n  // deploying a wallet contract. user will supply salt. owner is optional\n  function deployWallet(string memory _username, bytes32 _salt, address payable _owner) public onlyOwner {\n    bytes memory usernameBytes = bytes(_username);\n    bytes32 usernameKey = keccak256(usernameBytes);\n\n    require(users[usernameKey].exists, \"User does not exist.\");\n\n    User storage user = users[usernameKey];\n\n    require(user.walletAddress.balance > deployThreshold, \"Wallet does not have enough funds to deploy.\");\n\n    address walletAddress = factory.deploy(bytecodeMap[user.bytecodeVersion], _salt);\n\n    // Check wallet address for security\n    require(walletAddress == user.walletAddress, \"Wallet address does not match.\");\n\n    // Set owner if specified\n    if (_owner != address(0x0)){\n      WalletInterface wallet = WalletInterface(user.walletAddress);\n      wallet.setOwner(_owner);\n    }\n\n    emit DeployedWallet(_username, walletAddress, user.bytecodeVersion);\n\n    user.deployed = true;\n\n  }\n\n  // deploying an upgraded wallet contract. user will supply _salt. owner is optional\n  function upgradeWallet(string memory _username, bytes32 _salt, address payable _owner) public onlyOwner {\n    bytes memory usernameBytes = bytes(_username);\n    bytes32 usernameKey = keccak256(usernameBytes);\n\n    require(users[usernameKey].exists, \"User does not exist.\");\n\n    User storage user = users[usernameKey];\n\n    require(user.upgrading, \"User is not in upgrade stage.\");\n\n    require(user.upgradeAddress.balance > deployThreshold, \"Wallet does not have enough funds to deploy.\");\n\n    address walletAddress = factory.deploy(bytecodeMap[user.bytecodeVersion], _salt);\n\n    // Check wallet address for security\n    require(walletAddress == user.upgradeAddress, \"Wallet address does not match.\");\n\n    // Set owner if specified\n    if (_owner != address(0x0)){\n      WalletInterface wallet = WalletInterface(user.walletAddress);\n      wallet.setOwner(_owner);\n    }\n\n    emit UpgradedWallet(_username, user.walletAddress, user.bytecodeVersion, user.upgradeAddress, user.upgradeVersion);\n\n    user.bytecodeVersion = user.upgradeVersion;\n    user.walletAddress = walletAddress;\n    user.upgrading = false;\n\n  }\n\n  // adding a user to our database/mapping\n  function addUser(string memory _username, address _address) public onlyOwner {\n\n    bytes memory usernameBytes = bytes(_username);\n    bytes32 usernameKey = keccak256(usernameBytes);\n\n    require(!users[usernameKey].exists, \"Username already exists.\");\n\n    User memory newUser = User({\n        bytecodeVersion: currentVersion,\n        walletAddress: _address,\n        deployed: false,\n        exists: true,\n        upgradeAddress: address(0x0),\n        upgradeVersion: currentVersion,\n        upgrading: false\n      });\n\n    users[usernameKey] = newUser;\n\n    emit NewUser(_username, _address, currentVersion);\n  }\n\n  // puts the user in upgrade mode if there is a new wallet version\n  // and user wants to upgrade.\n  // during upgrade stage we keep track of previous wallet and new wallet\n  function upgradeUser(string memory _username, address _address) public onlyOwner {\n    bytes memory usernameBytes = bytes(_username);\n    bytes32 usernameKey = keccak256(usernameBytes);\n\n    require(users[usernameKey].exists, \"User does not exist.\");\n\n    User storage user = users[usernameKey];\n\n    require(user.bytecodeVersion < currentVersion, \"Version is up to do date.\");\n\n    user.upgradeVersion = currentVersion;\n    user.upgradeAddress = _address;\n    user.upgrading = true;\n  }\n\n  // public function to view a user's data\n  function viewUser(string memory _username) public view returns\n  (uint256, address, bool, bool, address, uint256, bool) {\n    bytes memory usernameBytes = bytes(_username);\n    bytes32 usernameKey = keccak256(usernameBytes);\n\n    require(users[usernameKey].exists, \"User does not exist.\");\n\n    User storage user = users[usernameKey];\n\n    return(user.bytecodeVersion,\n        user.walletAddress,\n        user.deployed,\n        user.exists,\n        user.upgradeAddress,\n        user.upgradeVersion,\n        user.upgrading\n    );\n  }\n\n  // public function to view a user's wallet balance\n  function viewBalance(string memory _username) public view returns (uint256) {\n    bytes memory usernameBytes = bytes(_username);\n    bytes32 usernameKey = keccak256(usernameBytes);\n\n    require(users[usernameKey].exists, \"User does not exist.\");\n\n    User storage user = users[usernameKey];\n\n    return(user.walletAddress.balance);\n  }\n\n  // function for user to set themselves as owner\n  function userOwnership(string memory _username, address payable _owner) public onlyOwner {\n    bytes memory usernameBytes = bytes(_username);\n    bytes32 usernameKey = keccak256(usernameBytes);\n\n    require(users[usernameKey].exists, \"User does not exist.\");\n\n    User storage user = users[usernameKey];\n\n    WalletInterface wallet = WalletInterface(user.walletAddress);\n\n    wallet.setOwner(_owner);\n  }\n\n  // Concatenate two bytes arrays. https://ethereum.stackexchange.com/a/40456\n  function MergeBytes(bytes memory a, bytes memory b) public pure returns (bytes memory c) {\n    // Store the length of the first array\n    uint alen = a.length;\n    // Store the length of BOTH arrays\n    uint totallen = alen + b.length;\n    // Count the loops required for array a (sets of 32 bytes)\n    uint loopsa = (a.length + 31) / 32;\n    // Count the loops required for array b (sets of 32 bytes)\n    uint loopsb = (b.length + 31) / 32;\n    assembly {\n      let m := mload(0x40)\n      // Load the length of both arrays to the head of the new bytes array\n      mstore(m, totallen)\n      // Add the contents of a to the array\n      for {  let i := 0 } lt(i, loopsa) { i := add(1, i) } { mstore(add(m, mul(32, add(1, i))), mload(add(a, mul(32, add(1, i))))) }\n      // Add the contents of b to the array\n      for {  let i := 0 } lt(i, loopsb) { i := add(1, i) } { mstore(add(m, add(mul(32, add(1, i)), alen)), mload(add(b, mul(32, add(1, i))))) }\n      mstore(0x40, add(m, add(32, totallen)))\n      c := m\n    }\n  }\n}\n",
  "sourcePath": "/home/aery/blockchain/dapp2/keyless-wallet/contracts/VersionControl.sol",
  "compiler": {
    "name": "solc",
    "version": "0.5.7+commit.6da8b019.Emscripten.clang"
  },
  "schemaVersion": "3.0.1",
  "updatedAt": "2019-04-25T13:32:41.329Z",
  "devdoc": {
    "methods": {}
  },
  "userdoc": {
    "methods": {}
  }
}