{
  "contractName": "Factory",
  "abi": [
    {
      "anonymous": false,
      "inputs": [
        {
          "indexed": false,
          "name": "addr",
          "type": "address"
        },
        {
          "indexed": false,
          "name": "salt",
          "type": "uint256"
        }
      ],
      "name": "Deployed",
      "type": "event"
    },
    {
      "constant": false,
      "inputs": [
        {
          "name": "code",
          "type": "bytes"
        },
        {
          "name": "salt",
          "type": "uint256"
        }
      ],
      "name": "deploy",
      "outputs": [
        {
          "name": "",
          "type": "address"
        }
      ],
      "payable": false,
      "stateMutability": "nonpayable",
      "type": "function"
    }
  ],
  "bytecode": "0x608060405234801561001057600080fd5b506101c3806100206000396000f3fe6080604052600436106100405763ffffffff7c01000000000000000000000000000000000000000000000000000000006000350416639c4ae2d08114610045575b600080fd5b34801561005157600080fd5b506100fa6004803603604081101561006857600080fd5b81019060208101813564010000000081111561008357600080fd5b82018360208201111561009557600080fd5b803590602001918460018302840111640100000000831117156100b757600080fd5b91908080601f0160208091040260200160405190810160405280939291908181526020018383808284376000920191909152509295505091359250610123915050565b6040805173ffffffffffffffffffffffffffffffffffffffff9092168252519081900360200190f35b600080828451602086016000f59050803b151561013f57600080fd5b6040805173ffffffffffffffffffffffffffffffffffffffff831681526020810185905281517fb03c53b28e78a88e31607a27e1fa48234dce28d5d9d9ec7b295aeb02e674a1e1929181900390910190a1939250505056fea165627a7a72305820325a91d4b2458d98d60d1ae93c67815b831f3958655863a1ef8b55f1c4db3b2c0029",
  "source": "pragma solidity >0.4.99 <0.6.0;\n\ncontract Factory {\n  event Deployed(address addr, uint256 salt);\n\n  function deploy(bytes memory code, uint256 salt) public returns(address) {\n    address addr;\n    assembly {\n      addr := create2(0, add(code, 0x20), mload(code), salt)\n      if iszero(extcodesize(addr)) {\n        revert(0, 0)\n      }\n    }\n\n    emit Deployed(addr, salt);\n\n    return addr;\n  }\n}\n",
  "sourcePath": "/home/aery/blockchain/advanced_contracts/solidity-create2-example/contracts/Factory.sol",
  "compiler": {
    "name": "solc",
    "version": "0.5.0-nightly.2018.11.5+commit.88aee34c.Emscripten.clang"
  },
  "schemaVersion": "3.0.1",
  "updatedAt": "2019-04-04T17:20:08.554Z",
  "devdoc": {
    "methods": {}
  },
  "userdoc": {
    "methods": {}
  }
}