{
  "contractName": "Factory",
  "abi": [
    {
      "anonymous": false,
      "inputs": [
        {
          "indexed": false,
          "name": "addr",
          "type": "address"
        },
        {
          "indexed": false,
          "name": "salt",
          "type": "bytes32"
        }
      ],
      "name": "DeployedWallet",
      "type": "event"
    },
    {
      "constant": false,
      "inputs": [
        {
          "name": "code",
          "type": "bytes"
        },
        {
          "name": "salt",
          "type": "bytes32"
        }
      ],
      "name": "deploy",
      "outputs": [
        {
          "name": "",
          "type": "address"
        }
      ],
      "payable": false,
      "stateMutability": "nonpayable",
      "type": "function"
    }
  ],
  "bytecode": "0x608060405234801561001057600080fd5b50610185806100206000396000f3fe608060405234801561001057600080fd5b506004361061002b5760003560e01c80634af63f0214610030575b600080fd5b6100d86004803603604081101561004657600080fd5b81019060208101813564010000000081111561006157600080fd5b82018360208201111561007357600080fd5b8035906020019184600183028401116401000000008311171561009557600080fd5b91908080601f01602080910402602001604051908101604052809392919081815260200183838082843760009201919091525092955050913592506100f4915050565b604080516001600160a01b039092168252519081900360200190f35b600080828451602086016000f59050803b61010e57600080fd5b604080516001600160a01b03831681526020810185905281517fe52045913e0d3a5846d7fd4e2cf178c8e1d05a225a6fcf750600017feb4c9a69929181900390910190a1939250505056fea165627a7a72305820e4c5cb474cb9bc7f6031eaa19735c594655f20e9c35601253eb6addabf1a5c260029",
  "source": "pragma solidity 0.5.7;\n\n// Factory contract adapted from\n// https://github.com/stanislaw-glogowski/create2/blob/master/contracts/Factory.sol\ncontract Factory {\n  event DeployedWallet(address addr, bytes32 salt);\n\n  function deploy(bytes memory code, bytes32 salt) public returns(address){\n    address addr;\n    assembly {\n      addr := create2(0, add(code, 0x20), mload(code), salt)\n      if iszero(extcodesize(addr)) {\n        revert(0, 0)\n      }\n    }\n\n    // TODO: remove salt logging for security?\n    emit DeployedWallet(addr, salt);\n\n    return addr;\n  }\n}\n",
  "sourcePath": "/home/aery/blockchain/dapp2/keyless-wallet/contracts/Factory.sol",
  "compiler": {
    "name": "solc",
    "version": "0.5.7+commit.6da8b019.Emscripten.clang"
  },
  "schemaVersion": "3.0.1",
  "updatedAt": "2019-04-21T06:59:58.448Z",
  "devdoc": {
    "methods": {}
  },
  "userdoc": {
    "methods": {}
  }
}