{
  "contractName": "VersionControl",
  "abi": [
    {
      "constant": true,
      "inputs": [],
      "name": "deployThreshold",
      "outputs": [
        {
          "name": "",
          "type": "uint256"
        }
      ],
      "payable": false,
      "stateMutability": "view",
      "type": "function"
    },
    {
      "constant": true,
      "inputs": [],
      "name": "owner",
      "outputs": [
        {
          "name": "",
          "type": "address"
        }
      ],
      "payable": false,
      "stateMutability": "view",
      "type": "function"
    },
    {
      "constant": true,
      "inputs": [
        {
          "name": "",
          "type": "uint256"
        }
      ],
      "name": "bytecodeMap",
      "outputs": [
        {
          "name": "",
          "type": "bytes"
        }
      ],
      "payable": false,
      "stateMutability": "view",
      "type": "function"
    },
    {
      "constant": true,
      "inputs": [],
      "name": "currentVersion",
      "outputs": [
        {
          "name": "",
          "type": "uint256"
        }
      ],
      "payable": false,
      "stateMutability": "view",
      "type": "function"
    },
    {
      "constant": true,
      "inputs": [],
      "name": "factory",
      "outputs": [
        {
          "name": "",
          "type": "address"
        }
      ],
      "payable": false,
      "stateMutability": "view",
      "type": "function"
    },
    {
      "constant": true,
      "inputs": [
        {
          "name": "",
          "type": "bytes32"
        }
      ],
      "name": "users",
      "outputs": [
        {
          "name": "bytecodeVersion",
          "type": "uint256"
        },
        {
          "name": "walletAddress",
          "type": "address"
        },
        {
          "name": "deployed",
          "type": "bool"
        },
        {
          "name": "exists",
          "type": "bool"
        },
        {
          "name": "upgradeAddress",
          "type": "address"
        },
        {
          "name": "upgradeVersion",
          "type": "uint256"
        },
        {
          "name": "upgrading",
          "type": "bool"
        }
      ],
      "payable": false,
      "stateMutability": "view",
      "type": "function"
    },
    {
      "inputs": [
        {
          "name": "_address",
          "type": "address"
        },
        {
          "name": "_bytecode",
          "type": "bytes"
        }
      ],
      "payable": false,
      "stateMutability": "nonpayable",
      "type": "constructor"
    },
    {
      "anonymous": false,
      "inputs": [
        {
          "indexed": false,
          "name": "username",
          "type": "string"
        },
        {
          "indexed": false,
          "name": "contractAddress",
          "type": "address"
        },
        {
          "indexed": false,
          "name": "version",
          "type": "uint256"
        }
      ],
      "name": "DeployedWallet",
      "type": "event"
    },
    {
      "anonymous": false,
      "inputs": [
        {
          "indexed": false,
          "name": "username",
          "type": "string"
        },
        {
          "indexed": false,
          "name": "oldContractAddress",
          "type": "address"
        },
        {
          "indexed": false,
          "name": "oldVersion",
          "type": "uint256"
        },
        {
          "indexed": false,
          "name": "newContractAddress",
          "type": "address"
        },
        {
          "indexed": false,
          "name": "newVersion",
          "type": "uint256"
        }
      ],
      "name": "UpgradedWallet",
      "type": "event"
    },
    {
      "anonymous": false,
      "inputs": [
        {
          "indexed": false,
          "name": "username",
          "type": "string"
        },
        {
          "indexed": false,
          "name": "contractAddress",
          "type": "address"
        },
        {
          "indexed": false,
          "name": "version",
          "type": "uint256"
        }
      ],
      "name": "NewUser",
      "type": "event"
    },
    {
      "anonymous": false,
      "inputs": [
        {
          "indexed": true,
          "name": "oldOwner",
          "type": "address"
        },
        {
          "indexed": true,
          "name": "newOwner",
          "type": "address"
        }
      ],
      "name": "OwnershipChanged",
      "type": "event"
    },
    {
      "constant": false,
      "inputs": [
        {
          "name": "_owner",
          "type": "address"
        }
      ],
      "name": "setOwner",
      "outputs": [],
      "payable": false,
      "stateMutability": "nonpayable",
      "type": "function"
    },
    {
      "constant": false,
      "inputs": [
        {
          "name": "_bytecode",
          "type": "bytes"
        }
      ],
      "name": "updateBytecode",
      "outputs": [],
      "payable": false,
      "stateMutability": "nonpayable",
      "type": "function"
    },
    {
      "constant": false,
      "inputs": [
        {
          "name": "_username",
          "type": "string"
        },
        {
          "name": "salt",
          "type": "bytes32"
        }
      ],
      "name": "deployWallet",
      "outputs": [],
      "payable": false,
      "stateMutability": "nonpayable",
      "type": "function"
    },
    {
      "constant": false,
      "inputs": [
        {
          "name": "_username",
          "type": "string"
        },
        {
          "name": "salt",
          "type": "bytes32"
        }
      ],
      "name": "upgradeWallet",
      "outputs": [],
      "payable": false,
      "stateMutability": "nonpayable",
      "type": "function"
    },
    {
      "constant": false,
      "inputs": [
        {
          "name": "_username",
          "type": "string"
        },
        {
          "name": "_address",
          "type": "address"
        }
      ],
      "name": "addUser",
      "outputs": [],
      "payable": false,
      "stateMutability": "nonpayable",
      "type": "function"
    },
    {
      "constant": false,
      "inputs": [
        {
          "name": "_username",
          "type": "string"
        },
        {
          "name": "_address",
          "type": "address"
        }
      ],
      "name": "upgradeUser",
      "outputs": [],
      "payable": false,
      "stateMutability": "nonpayable",
      "type": "function"
    },
    {
      "constant": true,
      "inputs": [
        {
          "name": "_username",
          "type": "string"
        }
      ],
      "name": "viewUser",
      "outputs": [
        {
          "name": "",
          "type": "uint256"
        },
        {
          "name": "",
          "type": "address"
        },
        {
          "name": "",
          "type": "bool"
        },
        {
          "name": "",
          "type": "bool"
        },
        {
          "name": "",
          "type": "address"
        },
        {
          "name": "",
          "type": "uint256"
        },
        {
          "name": "",
          "type": "bool"
        }
      ],
      "payable": false,
      "stateMutability": "view",
      "type": "function"
    },
    {
      "constant": true,
      "inputs": [
        {
          "name": "_username",
          "type": "string"
        }
      ],
      "name": "viewBalance",
      "outputs": [
        {
          "name": "",
          "type": "uint256"
        }
      ],
      "payable": false,
      "stateMutability": "view",
      "type": "function"
    }
  ],
  "bytecode": "0x608060405260006001556207f3286003553480156200001d57600080fd5b506040516200183038038062001830833981018060405260408110156200004357600080fd5b8151602083018051919392830192916401000000008111156200006557600080fd5b820160208101848111156200007957600080fd5b81516401000000008111828201871017156200009457600080fd5b505060028054336001600160a01b031991821617909155600080549091166001600160a01b038716178155600181905580526005602090815281519194506200010493507f05b8ccbb9d4d8fb16ea74ce3c29a41f1b461fbdaff4714a0d9a8eb05499746bc92508401906200010d565b505050620001b2565b828054600181600116156101000203166002900490600052602060002090601f016020900481019282601f106200015057805160ff191683800117855562000180565b8280016001018555821562000180579182015b828111156200018057825182559160200191906001019062000163565b506200018e92915062000192565b5090565b620001af91905b808211156200018e576000815560010162000199565b90565b61166e80620001c26000396000f3fe608060405234801561001057600080fd5b50600436106100ea5760003560e01c8063864a0d0a1161008c5780639d888e86116100665780639d888e86146105d9578063c45a0155146105e1578063cea6ab98146105e9578063f3fd43a61461064e576100ea565b8063864a0d0a146104745780638da5cb5b14610523578063953d2d6714610547576100ea565b806337514297116100c857806337514297146101e057806355eaf980146102845780637156b439146103285780637b9b22ec146103ce576100ea565b8063038b2f16146100ef57806313af4035146101a05780631ff7a505146101c6575b600080fd5b61019e6004803603604081101561010557600080fd5b810190602081018135600160201b81111561011f57600080fd5b82018360208201111561013157600080fd5b803590602001918460018302840111600160201b8311171561015257600080fd5b91908080601f016020809104026020016040519081016040528093929190818152602001838380828437600092019190915250929550505090356001600160a01b031691506106f29050565b005b61019e600480360360208110156101b657600080fd5b50356001600160a01b031661081e565b6101ce610891565b60408051918252519081900360200190f35b61019e600480360360208110156101f657600080fd5b810190602081018135600160201b81111561021057600080fd5b82018360208201111561022257600080fd5b803590602001918460018302840111600160201b8311171561024357600080fd5b91908080601f016020809104026020016040519081016040528093929190818152602001838380828437600092019190915250929550610897945050505050565b6101ce6004803603602081101561029a57600080fd5b810190602081018135600160201b8111156102b457600080fd5b8201836020820111156102c657600080fd5b803590602001918460018302840111600160201b831117156102e757600080fd5b91908080601f0160208091040260200160405190810160405280939291908181526020018383808284376000920191909152509295506108e9945050505050565b61019e6004803603604081101561033e57600080fd5b810190602081018135600160201b81111561035857600080fd5b82018360208201111561036a57600080fd5b803590602001918460018302840111600160201b8311171561038b57600080fd5b91908080601f0160208091040260200160405190810160405280939291908181526020018383808284376000920191909152509295505091359250610978915050565b61019e600480360360408110156103e457600080fd5b810190602081018135600160201b8111156103fe57600080fd5b82018360208201111561041057600080fd5b803590602001918460018302840111600160201b8311171561043157600080fd5b91908080601f0160208091040260200160405190810160405280939291908181526020018383808284376000920191909152509295505091359250610d40915050565b61019e6004803603604081101561048a57600080fd5b810190602081018135600160201b8111156104a457600080fd5b8201836020820111156104b657600080fd5b803590602001918460018302840111600160201b831117156104d757600080fd5b91908080601f016020809104026020016040519081016040528093929190818152602001838380828437600092019190915250929550505090356001600160a01b0316915061107b9050565b61052b611318565b604080516001600160a01b039092168252519081900360200190f35b6105646004803603602081101561055d57600080fd5b5035611327565b6040805160208082528351818301528351919283929083019185019080838360005b8381101561059e578181015183820152602001610586565b50505050905090810190601f1680156105cb5780820380516001836020036101000a031916815260200191505b509250505060405180910390f35b6101ce6113c2565b61052b6113c8565b610606600480360360208110156105ff57600080fd5b50356113d7565b604080519788526001600160a01b0396871660208901529415158786015292151560608701529316608085015260a084019290925290151560c0830152519081900360e00190f35b6106066004803603602081101561066457600080fd5b810190602081018135600160201b81111561067e57600080fd5b82018360208201111561069057600080fd5b803590602001918460018302840111600160201b831117156106b157600080fd5b91908080601f01602080910402602001604051908101604052809392919081815260200183838082843760009201919091525092955061142e945050505050565b6002546001600160a01b0316331461070957600080fd5b815160208084019190912060008181526004909252604090912060010154839190600160a81b900460ff166107765760408051600160e51b62461bcd0281526020600482015260146024820152600080516020611623833981519152604482015290519081900360640190fd5b60008181526004602052604090206001548154106107de5760408051600160e51b62461bcd02815260206004820152601960248201527f56657273696f6e20697320757020746f20646f20646174652e00000000000000604482015290519081900360640190fd5b6001805460038301556002820180546001600160a01b0319166001600160a01b039690961695909517909455600401805460ff1916909317909255505050565b6002546001600160a01b0316331461083557600080fd5b6002546040516001600160a01b038084169216907f0384899bd253d83b23daa4d29aaa2efe0563d1132b43101e9ad667235aeb951b90600090a3600280546001600160a01b0319166001600160a01b0392909216919091179055565b60035481565b6002546001600160a01b031633146108ae57600080fd5b600180546108c19163ffffffff61150616565b6001819055600090815260056020908152604090912082516108e59284019061151f565b5050565b8051602080830191909120600081815260049092526040822060010154839190600160a81b900460ff166109555760408051600160e51b62461bcd0281526020600482015260146024820152600080516020611623833981519152604482015290519081900360640190fd5b6000908152600460205260409020600101546001600160a01b0316319392505050565b6002546001600160a01b0316331461098f57600080fd5b815160208084019190912060008181526004909252604090912060010154839190600160a81b900460ff166109fc5760408051600160e51b62461bcd0281526020600482015260146024820152600080516020611623833981519152604482015290519081900360640190fd5b60008181526004602081905260409091209081015460ff16610a685760408051600160e51b62461bcd02815260206004820152601d60248201527f55736572206973206e6f7420696e20757067726164652073746167652e000000604482015290519081900360640190fd5b60035460028201546001600160a01b03163111610ab957604051600160e51b62461bcd02815260040180806020018281038252602c8152602001806115f7602c913960400191505060405180910390fd5b6000805460038301548252600560205260408083208151600160e11b63257b1f810281526024810189905260048101928352815460026000196001831615610100020190911604604482018190526001600160a01b0390941693634af63f02938a92909182916064019085908015610b725780601f10610b4757610100808354040283529160200191610b72565b820191906000526020600020905b815481529060010190602001808311610b5557829003601f168201915b50509350505050602060405180830381600087803b158015610b9357600080fd5b505af1158015610ba7573d6000803e3d6000fd5b505050506040513d6020811015610bbd57600080fd5b505160028301549091506001600160a01b03808316911614610c295760408051600160e51b62461bcd02815260206004820152601e60248201527f57616c6c6574206164647265737320646f6573206e6f74206d617463682e0000604482015290519081900360640190fd5b6001820154825460028401546003850154604080516001600160a01b03958616602080830182905292820186905293909516606086018190526080860183905260a08087528c51908701528b517fcb51364a7acb98b4906afde0d1745cf27bb540ba2e14d591536a08876759a3f8968d969492939091829160c08301919089019080838360005b83811015610cc8578181015183820152602001610cb0565b50505050905090810190601f168015610cf55780820380516001836020036101000a031916815260200191505b50965050505050505060405180910390a1600382015482556001820180546001600160a01b0319166001600160a01b0392909216919091179055600401805460ff1916905550505050565b6002546001600160a01b03163314610d5757600080fd5b815160208084019190912060008181526004909252604090912060010154839190600160a81b900460ff16610dc45760408051600160e51b62461bcd0281526020600482015260146024820152600080516020611623833981519152604482015290519081900360640190fd5b600081815260046020526040902060035460018201546001600160a01b03163111610e2357604051600160e51b62461bcd02815260040180806020018281038252602c8152602001806115f7602c913960400191505060405180910390fd5b6000805482548252600560205260408083208151600160e11b63257b1f810281526024810189905260048101928352815460026000196001831615610100020190911604604482018190526001600160a01b0390941693634af63f02938a92909182916064019085908015610ed95780601f10610eae57610100808354040283529160200191610ed9565b820191906000526020600020905b815481529060010190602001808311610ebc57829003601f168201915b50509350505050602060405180830381600087803b158015610efa57600080fd5b505af1158015610f0e573d6000803e3d6000fd5b505050506040513d6020811015610f2457600080fd5b505160018301549091506001600160a01b03808316911614610f905760408051600160e51b62461bcd02815260206004820152601e60248201527f57616c6c6574206164647265737320646f6573206e6f74206d617463682e0000604482015290519081900360640190fd5b7f6b8a171e4fff4fe7f0fdb83e93ff4b9ae92c403d87d9ccd66aa470688e9959ff868284600001546040518080602001846001600160a01b03166001600160a01b03168152602001838152602001828103825285818151815260200191508051906020019080838360005b83811015611013578181015183820152602001610ffb565b50505050905090810190601f1680156110405780820380516001836020036101000a031916815260200191505b5094505050505060405180910390a150600101805474ff00000000000000000000000000000000000000001916600160a01b17905550505050565b6002546001600160a01b0316331461109257600080fd5b815160208084019190912060008181526004909252604090912060010154839190600160a81b900460ff16156111125760408051600160e51b62461bcd02815260206004820152601860248201527f557365726e616d6520616c7265616479206578697374732e0000000000000000604482015290519081900360640190fd5b61111a61159d565b6040518060e001604052806001548152602001856001600160a01b0316815260200160001515815260200160011515815260200160006001600160a01b03168152602001600154815260200160001515815250905080600460008481526020019081526020016000206000820151816000015560208201518160010160006101000a8154816001600160a01b0302191690836001600160a01b0316021790555060408201518160010160146101000a81548160ff02191690831515021790555060608201518160010160156101000a81548160ff02191690831515021790555060808201518160020160006101000a8154816001600160a01b0302191690836001600160a01b0316021790555060a0820151816003015560c08201518160040160006101000a81548160ff0219169083151502179055509050507ff4d5c0191b52b38292d49ae4c7633f6a49102056eddc7ac27149f4324a7b583985856001546040518080602001846001600160a01b03166001600160a01b03168152602001838152602001828103825285818151815260200191508051906020019080838360005b838110156112d55781810151838201526020016112bd565b50505050905090810190601f1680156113025780820380516001836020036101000a031916815260200191505b5094505050505060405180910390a15050505050565b6002546001600160a01b031681565b60056020908152600091825260409182902080548351601f6002600019610100600186161502019093169290920491820184900484028101840190945280845290918301828280156113ba5780601f1061138f576101008083540402835291602001916113ba565b820191906000526020600020905b81548152906001019060200180831161139d57829003601f168201915b505050505081565b60015481565b6000546001600160a01b031681565b60046020819052600091825260409091208054600182015460028301546003840154939094015491936001600160a01b038083169460ff600160a01b8504811695600160a81b909504811694939092169290911687565b8051602080830191909120600081815260049092526040822060010154829182918291829182918291899190600160a81b900460ff166114a65760408051600160e51b62461bcd0281526020600482015260146024820152600080516020611623833981519152604482015290519081900360640190fd5b600090815260046020819052604090912080546001820154600283015460038401549390940154919d6001600160a01b038083169e5060ff600160a01b840481169e50600160a81b90930483169c50909416995091975016945092505050565b60008282018381101561151857600080fd5b9392505050565b828054600181600116156101000203166002900490600052602060002090601f016020900481019282601f1061156057805160ff191683800117855561158d565b8280016001018555821561158d579182015b8281111561158d578251825591602001919060010190611572565b506115999291506115d9565b5090565b6040805160e081018252600080825260208201819052918101829052606081018290526080810182905260a0810182905260c081019190915290565b6115f391905b8082111561159957600081556001016115df565b9056fe57616c6c657420646f6573206e6f74206861766520656e6f7567682066756e647320746f206465706c6f792e5573657220646f6573206e6f742065786973742e000000000000000000000000a165627a7a7230582074e572e44e09a352e84d9246eeeb1b523e19cdd103c73f379037fa10558320160029",
  "source": "pragma solidity 0.5.7;\n\nimport \"./SafeMath.sol\";\n\n// Factory interface\ncontract FactoryInterface {\n  function deploy(bytes memory code, bytes32 salt) public returns(address);\n}\n\n// Datastore contract\ncontract VersionControl {\n\n  using SafeMath for uint256;\n\n  event DeployedWallet(string username, address contractAddress, uint256 version);\n  event UpgradedWallet(string username, address oldContractAddress, uint256 oldVersion, address newContractAddress, uint256 newVersion);\n  event NewUser(string username, address contractAddress, uint256 version);\n  event OwnershipChanged(address indexed oldOwner, address indexed newOwner);\n\n  FactoryInterface public factory;       // Factory contract address\n  uint256 public currentVersion = 0;     // Keep track of the current version\n  address public owner;\n  uint256 public deployThreshold = 521000;// Deploy fee is 500,000 wei. (~360 000 wei for storage + deploy wallet)\n                                          // Contract needs to have at least 521,000 wei to pay for transfer\n\n  // struct to hold user data\n  struct User {\n    uint256 bytecodeVersion;\n    address walletAddress;\n    bool deployed;\n    bool exists;\n    address upgradeAddress;\n    uint256 upgradeVersion;\n    bool upgrading;\n  }\n\n  // mapping of usernames\n  mapping(bytes32 => User) public users;\n\n  // mapping of bytecodes to keep track of versions\n  mapping(uint256 => bytes) public bytecodeMap;\n\n  constructor(address _address, bytes memory _bytecode) public {\n    owner = msg.sender;\n    factory = FactoryInterface(_address);\n    currentVersion = 0;\n    bytecodeMap[currentVersion] = _bytecode;\n  }\n\n  // owner modifier\n  modifier onlyOwner() {\n    require(msg.sender == owner);\n    _;\n  }\n\n  // Transfering ownership\n  function setOwner(address _owner) public {\n    require(msg.sender == owner);\n    emit OwnershipChanged(owner, _owner);\n    owner = _owner;\n  }\n\n  // owner can upgrade wallet contract\n  function updateBytecode(bytes memory _bytecode) public onlyOwner {\n    currentVersion = currentVersion.add(1);\n    bytecodeMap[currentVersion] = _bytecode;\n  }\n\n  // deploying a wallet contract. user will supply salt\n  function deployWallet(string memory _username, bytes32 salt) public onlyOwner {\n    bytes memory usernameBytes = bytes(_username);\n    bytes32 usernameKey = keccak256(usernameBytes);\n\n    require(users[usernameKey].exists, \"User does not exist.\");\n\n    User storage user = users[usernameKey];\n\n    require(user.walletAddress.balance > deployThreshold, \"Wallet does not have enough funds to deploy.\");\n\n    address walletAddress = factory.deploy(bytecodeMap[user.bytecodeVersion], salt);\n\n    // Check wallet address for security\n    require(walletAddress == user.walletAddress, \"Wallet address does not match.\");\n\n    emit DeployedWallet(_username, walletAddress, user.bytecodeVersion);\n\n    user.deployed = true;\n\n  }\n\n  // deploying an upgraded wallet contract. user will supply salt\n  function upgradeWallet(string memory _username, bytes32 salt) public onlyOwner {\n    bytes memory usernameBytes = bytes(_username);\n    bytes32 usernameKey = keccak256(usernameBytes);\n\n    require(users[usernameKey].exists, \"User does not exist.\");\n\n    User storage user = users[usernameKey];\n\n    require(user.upgrading, \"User is not in upgrade stage.\");\n\n    require(user.upgradeAddress.balance > deployThreshold, \"Wallet does not have enough funds to deploy.\");\n\n    address walletAddress = factory.deploy(bytecodeMap[user.upgradeVersion], salt);\n\n    // Check wallet address for security\n    require(walletAddress == user.upgradeAddress, \"Wallet address does not match.\");\n\n    emit UpgradedWallet(_username, user.walletAddress, user.bytecodeVersion, user.upgradeAddress, user.upgradeVersion);\n\n    user.bytecodeVersion = user.upgradeVersion;\n    user.walletAddress = walletAddress;\n    user.upgrading = false;\n\n  }\n\n  // adding a user to our database/mapping\n  function addUser(string memory _username, address _address) public onlyOwner {\n\n    bytes memory usernameBytes = bytes(_username);\n    bytes32 usernameKey = keccak256(usernameBytes);\n\n    require(!users[usernameKey].exists, \"Username already exists.\");\n\n    User memory newUser = User({\n        bytecodeVersion: currentVersion,\n        walletAddress: _address,\n        deployed: false,\n        exists: true,\n        upgradeAddress: address(0x0),\n        upgradeVersion: currentVersion,\n        upgrading: false\n      });\n\n    users[usernameKey] = newUser;\n\n    emit NewUser(_username, _address, currentVersion);\n  }\n\n  // puts the user in upgrade mode if there is a new wallet version\n  // and user wants to upgrade.\n  // during upgrade stage we keep track of previous wallet and new wallet\n  function upgradeUser(string memory _username, address _address) public onlyOwner {\n    bytes memory usernameBytes = bytes(_username);\n    bytes32 usernameKey = keccak256(usernameBytes);\n\n    require(users[usernameKey].exists, \"User does not exist.\");\n\n    User storage user = users[usernameKey];\n\n    require(user.bytecodeVersion < currentVersion, \"Version is up to do date.\");\n\n    user.upgradeVersion = currentVersion;\n    user.upgradeAddress = _address;\n    user.upgrading = true;\n  }\n\n  // public function to view a user's data\n  function viewUser(string memory _username) public view returns\n  (uint256, address, bool, bool, address, uint256, bool) {\n    bytes memory usernameBytes = bytes(_username);\n    bytes32 usernameKey = keccak256(usernameBytes);\n\n    require(users[usernameKey].exists, \"User does not exist.\");\n\n    User storage user = users[usernameKey];\n\n    return(user.bytecodeVersion,\n        user.walletAddress,\n        user.deployed,\n        user.exists,\n        user.upgradeAddress,\n        user.upgradeVersion,\n        user.upgrading\n    );\n  }\n\n  // public function to view a user's wallet balance\n  function viewBalance(string memory _username) public view returns (uint256) {\n    bytes memory usernameBytes = bytes(_username);\n    bytes32 usernameKey = keccak256(usernameBytes);\n\n    require(users[usernameKey].exists, \"User does not exist.\");\n\n    User storage user = users[usernameKey];\n\n    return(user.walletAddress.balance);\n  }\n}\n",
  "sourcePath": "/home/aery/blockchain/dapp2/keyless-wallet/contracts/VersionControl.sol",
  "compiler": {
    "name": "solc",
    "version": "0.5.7+commit.6da8b019.Emscripten.clang"
  },
  "schemaVersion": "3.0.1",
  "updatedAt": "2019-04-21T07:32:42.555Z",
  "devdoc": {
    "methods": {}
  },
  "userdoc": {
    "methods": {}
  }
}