{
  "contractName": "VersionControl",
  "abi": [
    {
      "constant": true,
      "inputs": [],
      "name": "owner",
      "outputs": [
        {
          "name": "",
          "type": "address"
        }
      ],
      "payable": false,
      "stateMutability": "view",
      "type": "function"
    },
    {
      "constant": true,
      "inputs": [
        {
          "name": "",
          "type": "uint256"
        }
      ],
      "name": "bytecodeMap",
      "outputs": [
        {
          "name": "",
          "type": "bytes"
        }
      ],
      "payable": false,
      "stateMutability": "view",
      "type": "function"
    },
    {
      "constant": true,
      "inputs": [],
      "name": "currentVersion",
      "outputs": [
        {
          "name": "",
          "type": "uint256"
        }
      ],
      "payable": false,
      "stateMutability": "view",
      "type": "function"
    },
    {
      "constant": true,
      "inputs": [],
      "name": "factory",
      "outputs": [
        {
          "name": "",
          "type": "address"
        }
      ],
      "payable": false,
      "stateMutability": "view",
      "type": "function"
    },
    {
      "constant": true,
      "inputs": [
        {
          "name": "",
          "type": "bytes32"
        }
      ],
      "name": "users",
      "outputs": [
        {
          "name": "bytecodeVersion",
          "type": "uint256"
        },
        {
          "name": "walletAddress",
          "type": "address"
        },
        {
          "name": "deployed",
          "type": "bool"
        },
        {
          "name": "exists",
          "type": "bool"
        },
        {
          "name": "upgradeAddress",
          "type": "address"
        },
        {
          "name": "upgradeVersion",
          "type": "uint256"
        },
        {
          "name": "upgrading",
          "type": "bool"
        }
      ],
      "payable": false,
      "stateMutability": "view",
      "type": "function"
    },
    {
      "inputs": [
        {
          "name": "_address",
          "type": "address"
        },
        {
          "name": "_bytecode",
          "type": "bytes"
        }
      ],
      "payable": false,
      "stateMutability": "nonpayable",
      "type": "constructor"
    },
    {
      "anonymous": false,
      "inputs": [
        {
          "indexed": false,
          "name": "username",
          "type": "string"
        },
        {
          "indexed": false,
          "name": "contractAddress",
          "type": "address"
        },
        {
          "indexed": false,
          "name": "version",
          "type": "uint256"
        }
      ],
      "name": "DeployedWallet",
      "type": "event"
    },
    {
      "anonymous": false,
      "inputs": [
        {
          "indexed": false,
          "name": "username",
          "type": "string"
        },
        {
          "indexed": false,
          "name": "oldContractAddress",
          "type": "address"
        },
        {
          "indexed": false,
          "name": "oldVersion",
          "type": "uint256"
        },
        {
          "indexed": false,
          "name": "newContractAddress",
          "type": "address"
        },
        {
          "indexed": false,
          "name": "newVersion",
          "type": "uint256"
        }
      ],
      "name": "UpgradedWallet",
      "type": "event"
    },
    {
      "anonymous": false,
      "inputs": [
        {
          "indexed": false,
          "name": "username",
          "type": "string"
        },
        {
          "indexed": false,
          "name": "contractAddress",
          "type": "address"
        },
        {
          "indexed": false,
          "name": "version",
          "type": "uint256"
        }
      ],
      "name": "NewUser",
      "type": "event"
    },
    {
      "anonymous": false,
      "inputs": [
        {
          "indexed": true,
          "name": "oldOwner",
          "type": "address"
        },
        {
          "indexed": true,
          "name": "newOwner",
          "type": "address"
        }
      ],
      "name": "OwnershipChanged",
      "type": "event"
    },
    {
      "constant": false,
      "inputs": [
        {
          "name": "_owner",
          "type": "address"
        }
      ],
      "name": "setOwner",
      "outputs": [],
      "payable": false,
      "stateMutability": "nonpayable",
      "type": "function"
    },
    {
      "constant": false,
      "inputs": [
        {
          "name": "_bytecode",
          "type": "bytes"
        }
      ],
      "name": "updateBytecode",
      "outputs": [],
      "payable": false,
      "stateMutability": "nonpayable",
      "type": "function"
    },
    {
      "constant": false,
      "inputs": [
        {
          "name": "_username",
          "type": "string"
        },
        {
          "name": "salt",
          "type": "bytes32"
        }
      ],
      "name": "deployWallet",
      "outputs": [],
      "payable": false,
      "stateMutability": "nonpayable",
      "type": "function"
    },
    {
      "constant": false,
      "inputs": [
        {
          "name": "_username",
          "type": "string"
        },
        {
          "name": "salt",
          "type": "bytes32"
        }
      ],
      "name": "upgradeWallet",
      "outputs": [],
      "payable": false,
      "stateMutability": "nonpayable",
      "type": "function"
    },
    {
      "constant": false,
      "inputs": [
        {
          "name": "_username",
          "type": "string"
        },
        {
          "name": "_address",
          "type": "address"
        }
      ],
      "name": "addUser",
      "outputs": [],
      "payable": false,
      "stateMutability": "nonpayable",
      "type": "function"
    },
    {
      "constant": false,
      "inputs": [
        {
          "name": "_username",
          "type": "string"
        },
        {
          "name": "_address",
          "type": "address"
        }
      ],
      "name": "upgradeUser",
      "outputs": [],
      "payable": false,
      "stateMutability": "nonpayable",
      "type": "function"
    },
    {
      "constant": true,
      "inputs": [
        {
          "name": "_username",
          "type": "string"
        }
      ],
      "name": "viewUser",
      "outputs": [
        {
          "name": "",
          "type": "uint256"
        },
        {
          "name": "",
          "type": "address"
        },
        {
          "name": "",
          "type": "bool"
        },
        {
          "name": "",
          "type": "bool"
        },
        {
          "name": "",
          "type": "address"
        },
        {
          "name": "",
          "type": "uint256"
        },
        {
          "name": "",
          "type": "bool"
        }
      ],
      "payable": false,
      "stateMutability": "view",
      "type": "function"
    }
  ],
  "bytecode": "0x608060405260006001553480156200001657600080fd5b50604051620016be380380620016be833981018060405260408110156200003c57600080fd5b8151602083018051919392830192916401000000008111156200005e57600080fd5b820160208101848111156200007257600080fd5b81516401000000008111828201871017156200008d57600080fd5b505060028054336001600160a01b031991821617909155600080549091166001600160a01b03871617815560018190558052600460209081528151919450620000fd93507f17ef568e3e12ab5b9c7254a8d58478811de00f9e6eb34345acd53bf8fd09d3ec925084019062000106565b505050620001ab565b828054600181600116156101000203166002900490600052602060002090601f016020900481019282601f106200014957805160ff191683800117855562000179565b8280016001018555821562000179579182015b82811115620001795782518255916020019190600101906200015c565b50620001879291506200018b565b5090565b620001a891905b8082111562000187576000815560010162000192565b90565b61150380620001bb6000396000f3fe608060405234801561001057600080fd5b50600436106100b45760003560e01c80638da5cb5b116100715780638da5cb5b1461042f578063953d2d67146104535780639d888e86146104e5578063c45a0155146104ff578063cea6ab9814610507578063f3fd43a61461056c576100b4565b8063038b2f16146100b957806313af40351461016a57806337514297146101905780637156b439146102345780637b9b22ec146102da578063864a0d0a14610380575b600080fd5b610168600480360360408110156100cf57600080fd5b810190602081018135600160201b8111156100e957600080fd5b8201836020820111156100fb57600080fd5b803590602001918460018302840111600160201b8311171561011c57600080fd5b91908080601f016020809104026020016040519081016040528093929190818152602001838380828437600092019190915250929550505090356001600160a01b031691506106109050565b005b6101686004803603602081101561018057600080fd5b50356001600160a01b0316610748565b610168600480360360208110156101a657600080fd5b810190602081018135600160201b8111156101c057600080fd5b8201836020820111156101d257600080fd5b803590602001918460018302840111600160201b831117156101f357600080fd5b91908080601f0160208091040260200160405190810160405280939291908181526020018383808284376000920191909152509295506107bb945050505050565b6101686004803603604081101561024a57600080fd5b810190602081018135600160201b81111561026457600080fd5b82018360208201111561027657600080fd5b803590602001918460018302840111600160201b8311171561029757600080fd5b91908080601f016020809104026020016040519081016040528093929190818152602001838380828437600092019190915250929550509135925061080d915050565b610168600480360360408110156102f057600080fd5b810190602081018135600160201b81111561030a57600080fd5b82018360208201111561031c57600080fd5b803590602001918460018302840111600160201b8311171561033d57600080fd5b91908080601f0160208091040260200160405190810160405280939291908181526020018383808284376000920191909152509295505091359250610bde915050565b6101686004803603604081101561039657600080fd5b810190602081018135600160201b8111156103b057600080fd5b8201836020820111156103c257600080fd5b803590602001918460018302840111600160201b831117156103e357600080fd5b91908080601f016020809104026020016040519081016040528093929190818152602001838380828437600092019190915250929550505090356001600160a01b03169150610f249050565b6104376111c1565b604080516001600160a01b039092168252519081900360200190f35b6104706004803603602081101561046957600080fd5b50356111d0565b6040805160208082528351818301528351919283929083019185019080838360005b838110156104aa578181015183820152602001610492565b50505050905090810190601f1680156104d75780820380516001836020036101000a031916815260200191505b509250505060405180910390f35b6104ed61126b565b60408051918252519081900360200190f35b610437611271565b6105246004803603602081101561051d57600080fd5b5035611280565b604080519788526001600160a01b0396871660208901529415158786015292151560608701529316608085015260a084019290925290151560c0830152519081900360e00190f35b6105246004803603602081101561058257600080fd5b810190602081018135600160201b81111561059c57600080fd5b8201836020820111156105ae57600080fd5b803590602001918460018302840111600160201b831117156105cf57600080fd5b91908080601f0160208091040260200160405190810160405280939291908181526020018383808284376000920191909152509295506112d7945050505050565b6002546001600160a01b0316331461062757600080fd5b815160208084019190912060008181526003909252604090912060010154839190600160a81b900460ff166106a05760408051600160e51b62461bcd0281526020600482015260146024820152600160611b732ab9b2b9103237b2b9903737ba1032bc34b9ba1702604482015290519081900360640190fd5b60008181526003602052604090206001548154106107085760408051600160e51b62461bcd02815260206004820152601960248201527f56657273696f6e20697320757020746f20646f20646174652e00000000000000604482015290519081900360640190fd5b6001805460038301556002820180546001600160a01b0319166001600160a01b039690961695909517909455600401805460ff1916909317909255505050565b6002546001600160a01b0316331461075f57600080fd5b6002546040516001600160a01b038084169216907f0384899bd253d83b23daa4d29aaa2efe0563d1132b43101e9ad667235aeb951b90600090a3600280546001600160a01b0319166001600160a01b0392909216919091179055565b6002546001600160a01b031633146107d257600080fd5b600180546107e59163ffffffff6113bb16565b600181905560009081526004602090815260409091208251610809928401906113d4565b5050565b6002546001600160a01b0316331461082457600080fd5b815160208084019190912060008181526003909252604090912060010154839190600160a81b900460ff1661089d5760408051600160e51b62461bcd0281526020600482015260146024820152600160611b732ab9b2b9103237b2b9903737ba1032bc34b9ba1702604482015290519081900360640190fd5b6000818152600360205260409020600481015460ff166109075760408051600160e51b62461bcd02815260206004820152601d60248201527f55736572206973206e6f7420696e20757067726164652073746167652e000000604482015290519081900360640190fd5b60028101546001600160a01b03163161095457604051600160e51b62461bcd02815260040180806020018281038252602c8152602001806114ac602c913960400191505060405180910390fd5b60008054600383015482526004602081905260408084208151600160e11b63257b1f81028152602481018a9052928301918252805460026000196001831615610100020190911604604484018190526001600160a01b0390941693634af63f029391928a92909182916064019085908015610a105780601f106109e557610100808354040283529160200191610a10565b820191906000526020600020905b8154815290600101906020018083116109f357829003601f168201915b50509350505050602060405180830381600087803b158015610a3157600080fd5b505af1158015610a45573d6000803e3d6000fd5b505050506040513d6020811015610a5b57600080fd5b505160028301549091506001600160a01b03808316911614610ac75760408051600160e51b62461bcd02815260206004820152601e60248201527f57616c6c6574206164647265737320646f6573206e6f74206d617463682e0000604482015290519081900360640190fd5b6001820154825460028401546003850154604080516001600160a01b03958616602080830182905292820186905293909516606086018190526080860183905260a08087528c51908701528b517fcb51364a7acb98b4906afde0d1745cf27bb540ba2e14d591536a08876759a3f8968d969492939091829160c08301919089019080838360005b83811015610b66578181015183820152602001610b4e565b50505050905090810190601f168015610b935780820380516001836020036101000a031916815260200191505b50965050505050505060405180910390a1600382015482556001820180546001600160a01b0319166001600160a01b0392909216919091179055600401805460ff1916905550505050565b6002546001600160a01b03163314610bf557600080fd5b815160208084019190912060008181526003909252604090912060010154839190600160a81b900460ff16610c6e5760408051600160e51b62461bcd0281526020600482015260146024820152600160611b732ab9b2b9103237b2b9903737ba1032bc34b9ba1702604482015290519081900360640190fd5b600081815260036020526040902060018101546001600160a01b031631610cc957604051600160e51b62461bcd02815260040180806020018281038252602c8152602001806114ac602c913960400191505060405180910390fd5b60008054825482526004602081905260408084208151600160e11b63257b1f81028152602481018a9052928301918252805460026000196001831615610100020190911604604484018190526001600160a01b0390941693634af63f029391928a92909182916064019085908015610d825780601f10610d5757610100808354040283529160200191610d82565b820191906000526020600020905b815481529060010190602001808311610d6557829003601f168201915b50509350505050602060405180830381600087803b158015610da357600080fd5b505af1158015610db7573d6000803e3d6000fd5b505050506040513d6020811015610dcd57600080fd5b505160018301549091506001600160a01b03808316911614610e395760408051600160e51b62461bcd02815260206004820152601e60248201527f57616c6c6574206164647265737320646f6573206e6f74206d617463682e0000604482015290519081900360640190fd5b7f6b8a171e4fff4fe7f0fdb83e93ff4b9ae92c403d87d9ccd66aa470688e9959ff868284600001546040518080602001846001600160a01b03166001600160a01b03168152602001838152602001828103825285818151815260200191508051906020019080838360005b83811015610ebc578181015183820152602001610ea4565b50505050905090810190601f168015610ee95780820380516001836020036101000a031916815260200191505b5094505050505060405180910390a150600101805474ff00000000000000000000000000000000000000001916600160a01b17905550505050565b6002546001600160a01b03163314610f3b57600080fd5b815160208084019190912060008181526003909252604090912060010154839190600160a81b900460ff1615610fbb5760408051600160e51b62461bcd02815260206004820152601860248201527f557365726e616d6520616c7265616479206578697374732e0000000000000000604482015290519081900360640190fd5b610fc3611452565b6040518060e001604052806001548152602001856001600160a01b0316815260200160001515815260200160011515815260200160006001600160a01b03168152602001600154815260200160001515815250905080600360008481526020019081526020016000206000820151816000015560208201518160010160006101000a8154816001600160a01b0302191690836001600160a01b0316021790555060408201518160010160146101000a81548160ff02191690831515021790555060608201518160010160156101000a81548160ff02191690831515021790555060808201518160020160006101000a8154816001600160a01b0302191690836001600160a01b0316021790555060a0820151816003015560c08201518160040160006101000a81548160ff0219169083151502179055509050507ff4d5c0191b52b38292d49ae4c7633f6a49102056eddc7ac27149f4324a7b583985856001546040518080602001846001600160a01b03166001600160a01b03168152602001838152602001828103825285818151815260200191508051906020019080838360005b8381101561117e578181015183820152602001611166565b50505050905090810190601f1680156111ab5780820380516001836020036101000a031916815260200191505b5094505050505060405180910390a15050505050565b6002546001600160a01b031681565b60046020908152600091825260409182902080548351601f6002600019610100600186161502019093169290920491820184900484028101840190945280845290918301828280156112635780601f1061123857610100808354040283529160200191611263565b820191906000526020600020905b81548152906001019060200180831161124657829003601f168201915b505050505081565b60015481565b6000546001600160a01b031681565b60036020819052600091825260409091208054600182015460028301549383015460049093015491936001600160a01b038083169460ff600160a01b8504811695600160a81b909504811694939092169290911687565b8051602080830191909120600081815260039092526040822060010154829182918291829182918291899190600160a81b900460ff1661135b5760408051600160e51b62461bcd0281526020600482015260146024820152600160611b732ab9b2b9103237b2b9903737ba1032bc34b9ba1702604482015290519081900360640190fd5b600090815260036020819052604090912080546001820154600283015493830154600490930154919d6001600160a01b038083169e5060ff600160a01b840481169e50600160a81b90930483169c50909416995091975016945092505050565b6000828201838110156113cd57600080fd5b9392505050565b828054600181600116156101000203166002900490600052602060002090601f016020900481019282601f1061141557805160ff1916838001178555611442565b82800160010185558215611442579182015b82811115611442578251825591602001919060010190611427565b5061144e92915061148e565b5090565b6040805160e081018252600080825260208201819052918101829052606081018290526080810182905260a0810182905260c081019190915290565b6114a891905b8082111561144e5760008155600101611494565b9056fe57616c6c657420646f6573206e6f74206861766520656e6f7567682066756e647320746f206465706c6f792ea165627a7a7230582077444f9230b670c4c6120280843643aff3b900bd2e48aa80ce85cd6752a0b9b20029",
  "source": "pragma solidity 0.5.7;\n\nimport \"./SafeMath.sol\";\n\n// Factory interface\ncontract FactoryInterface {\n  function deploy(bytes memory code, bytes32 salt) public returns(address);\n}\n\n// Datastore contract\ncontract VersionControl {\n\n  using SafeMath for uint256;\n\n  event DeployedWallet(string username, address contractAddress, uint256 version);\n  event UpgradedWallet(string username, address oldContractAddress, uint256 oldVersion, address newContractAddress, uint256 newVersion);\n  event NewUser(string username, address contractAddress, uint256 version);\n  event OwnershipChanged(address indexed oldOwner, address indexed newOwner);\n\n  FactoryInterface public factory;       // Factory contract address\n  uint256 public currentVersion = 0;     // Keep track of the current version\n  address public owner;\n\n  // struct to hold user data\n  struct User {\n    uint256 bytecodeVersion;\n    address walletAddress;\n    bool deployed;\n    bool exists;\n    address upgradeAddress;\n    uint256 upgradeVersion;\n    bool upgrading;\n  }\n\n  // mapping of usernames\n  mapping(bytes32 => User) public users;\n\n  // mapping of bytecodes to keep track of versions\n  mapping(uint256 => bytes) public bytecodeMap;\n\n  constructor(address _address, bytes memory _bytecode) public {\n    owner = msg.sender;\n    factory = FactoryInterface(_address);\n    currentVersion = 0;\n    bytecodeMap[currentVersion] = _bytecode;\n  }\n\n  // owner modifier\n  modifier onlyOwner() {\n    require(msg.sender == owner);\n    _;\n  }\n\n  // Transfering ownership\n  function setOwner(address _owner) public {\n    require(msg.sender == owner);\n    emit OwnershipChanged(owner, _owner);\n    owner = _owner;\n  }\n\n  // owner can upgrade wallet contract\n  function updateBytecode(bytes memory _bytecode) public onlyOwner {\n    currentVersion = currentVersion.add(1);\n    bytecodeMap[currentVersion] = _bytecode;\n  }\n\n  // deploying a wallet contract. user will supply salt\n  function deployWallet(string memory _username, bytes32 salt) public onlyOwner {\n    bytes memory usernameBytes = bytes(_username);\n    bytes32 usernameKey = keccak256(usernameBytes);\n\n    require(users[usernameKey].exists, \"User does not exist.\");\n\n    User storage user = users[usernameKey];\n\n    require(user.walletAddress.balance > 0, \"Wallet does not have enough funds to deploy.\");\n\n    address walletAddress = factory.deploy(bytecodeMap[user.bytecodeVersion], salt);\n\n    // Check wallet address for security\n    require(walletAddress == user.walletAddress, \"Wallet address does not match.\");\n\n    emit DeployedWallet(_username, walletAddress, user.bytecodeVersion);\n\n    user.deployed = true;\n\n  }\n\n  // deploying an upgraded wallet contract. user will supply salt\n  function upgradeWallet(string memory _username, bytes32 salt) public onlyOwner {\n    bytes memory usernameBytes = bytes(_username);\n    bytes32 usernameKey = keccak256(usernameBytes);\n\n    require(users[usernameKey].exists, \"User does not exist.\");\n\n    User storage user = users[usernameKey];\n\n    require(user.upgrading, \"User is not in upgrade stage.\");\n\n    require(user.upgradeAddress.balance > 0, \"Wallet does not have enough funds to deploy.\");\n\n    address walletAddress = factory.deploy(bytecodeMap[user.upgradeVersion], salt);\n\n    // Check wallet address for security\n    require(walletAddress == user.upgradeAddress, \"Wallet address does not match.\");\n\n    emit UpgradedWallet(_username, user.walletAddress, user.bytecodeVersion, user.upgradeAddress, user.upgradeVersion);\n\n    user.bytecodeVersion = user.upgradeVersion;\n    user.walletAddress = walletAddress;\n    user.upgrading = false;\n\n  }\n\n  // adding a user to our database/mapping\n  function addUser(string memory _username, address _address) public onlyOwner {\n\n    bytes memory usernameBytes = bytes(_username);\n    bytes32 usernameKey = keccak256(usernameBytes);\n\n    require(!users[usernameKey].exists, \"Username already exists.\");\n\n    User memory newUser = User({\n        bytecodeVersion: currentVersion,\n        walletAddress: _address,\n        deployed: false,\n        exists: true,\n        upgradeAddress: address(0x0),\n        upgradeVersion: currentVersion,\n        upgrading: false\n      });\n\n    users[usernameKey] = newUser;\n\n    emit NewUser(_username, _address, currentVersion);\n  }\n\n  // puts the user in upgrade mode if there is a new wallet version\n  // and user wants to upgrade.\n  // during upgrade stage we keep track of previous wallet and new wallet\n  function upgradeUser(string memory _username, address _address) public onlyOwner {\n    bytes memory usernameBytes = bytes(_username);\n    bytes32 usernameKey = keccak256(usernameBytes);\n\n    require(users[usernameKey].exists, \"User does not exist.\");\n\n    User storage user = users[usernameKey];\n\n    require(user.bytecodeVersion < currentVersion, \"Version is up to do date.\");\n\n    user.upgradeVersion = currentVersion;\n    user.upgradeAddress = _address;\n    user.upgrading = true;\n  }\n\n  // public function to view a user's data\n  function viewUser(string memory _username) public view returns\n  (uint256, address, bool, bool, address, uint256, bool) {\n    bytes memory usernameBytes = bytes(_username);\n    bytes32 usernameKey = keccak256(usernameBytes);\n\n    require(users[usernameKey].exists, \"User does not exist.\");\n\n    User storage user = users[usernameKey];\n\n    return(user.bytecodeVersion,\n        user.walletAddress,\n        user.deployed,\n        user.exists,\n        user.upgradeAddress,\n        user.upgradeVersion,\n        user.upgrading\n    );\n  }\n}\n",
  "sourcePath": "/home/aery/blockchain/dapp2/keyless-wallet/contracts/VersionControl.sol",
  "compiler": {
    "name": "solc",
    "version": "0.5.7+commit.6da8b019.Emscripten.clang"
  },
  "schemaVersion": "3.0.1",
  "updatedAt": "2019-04-21T06:59:58.489Z",
  "devdoc": {
    "methods": {}
  },
  "userdoc": {
    "methods": {}
  }
}