{
  "contractName": "VersionControl",
  "abi": [
    {
      "constant": true,
      "inputs": [
        {
          "name": "",
          "type": "uint256"
        }
      ],
      "name": "bytecodeMap",
      "outputs": [
        {
          "name": "",
          "type": "bytes"
        }
      ],
      "payable": false,
      "stateMutability": "view",
      "type": "function"
    },
    {
      "inputs": [
        {
          "name": "_address",
          "type": "address"
        },
        {
          "name": "_bytecode",
          "type": "bytes"
        }
      ],
      "payable": false,
      "stateMutability": "nonpayable",
      "type": "constructor"
    },
    {
      "anonymous": false,
      "inputs": [
        {
          "indexed": false,
          "name": "username",
          "type": "string"
        },
        {
          "indexed": false,
          "name": "contractAddress",
          "type": "address"
        },
        {
          "indexed": false,
          "name": "version",
          "type": "uint256"
        }
      ],
      "name": "DeployedWallet",
      "type": "event"
    },
    {
      "anonymous": false,
      "inputs": [
        {
          "indexed": false,
          "name": "username",
          "type": "string"
        },
        {
          "indexed": false,
          "name": "oldContractAddress",
          "type": "address"
        },
        {
          "indexed": false,
          "name": "oldVersion",
          "type": "uint256"
        },
        {
          "indexed": false,
          "name": "newContractAddress",
          "type": "address"
        },
        {
          "indexed": false,
          "name": "newVersion",
          "type": "uint256"
        }
      ],
      "name": "UpgradedWallet",
      "type": "event"
    },
    {
      "anonymous": false,
      "inputs": [
        {
          "indexed": false,
          "name": "username",
          "type": "string"
        },
        {
          "indexed": false,
          "name": "contractAddress",
          "type": "address"
        },
        {
          "indexed": false,
          "name": "version",
          "type": "uint256"
        }
      ],
      "name": "NewUser",
      "type": "event"
    },
    {
      "anonymous": false,
      "inputs": [
        {
          "indexed": true,
          "name": "oldOwner",
          "type": "address"
        },
        {
          "indexed": true,
          "name": "newOwner",
          "type": "address"
        }
      ],
      "name": "OwnershipChanged",
      "type": "event"
    },
    {
      "constant": false,
      "inputs": [
        {
          "name": "_owner",
          "type": "address"
        }
      ],
      "name": "setOwner",
      "outputs": [],
      "payable": false,
      "stateMutability": "nonpayable",
      "type": "function"
    },
    {
      "constant": false,
      "inputs": [
        {
          "name": "_bytecode",
          "type": "bytes"
        }
      ],
      "name": "updateBytecode",
      "outputs": [],
      "payable": false,
      "stateMutability": "nonpayable",
      "type": "function"
    },
    {
      "constant": false,
      "inputs": [
        {
          "name": "_username",
          "type": "string"
        },
        {
          "name": "salt",
          "type": "uint256"
        }
      ],
      "name": "deployWallet",
      "outputs": [],
      "payable": false,
      "stateMutability": "nonpayable",
      "type": "function"
    },
    {
      "constant": false,
      "inputs": [
        {
          "name": "_username",
          "type": "string"
        },
        {
          "name": "salt",
          "type": "uint256"
        }
      ],
      "name": "upgradeWallet",
      "outputs": [],
      "payable": false,
      "stateMutability": "nonpayable",
      "type": "function"
    },
    {
      "constant": false,
      "inputs": [
        {
          "name": "_username",
          "type": "string"
        },
        {
          "name": "_address",
          "type": "address"
        }
      ],
      "name": "addUser",
      "outputs": [],
      "payable": false,
      "stateMutability": "nonpayable",
      "type": "function"
    },
    {
      "constant": false,
      "inputs": [
        {
          "name": "_username",
          "type": "string"
        },
        {
          "name": "_address",
          "type": "address"
        }
      ],
      "name": "upgradeUser",
      "outputs": [],
      "payable": false,
      "stateMutability": "nonpayable",
      "type": "function"
    },
    {
      "constant": true,
      "inputs": [
        {
          "name": "_username",
          "type": "string"
        }
      ],
      "name": "viewUser",
      "outputs": [
        {
          "name": "",
          "type": "uint256"
        },
        {
          "name": "",
          "type": "address"
        },
        {
          "name": "",
          "type": "bool"
        },
        {
          "name": "",
          "type": "bool"
        },
        {
          "name": "",
          "type": "address"
        },
        {
          "name": "",
          "type": "uint256"
        },
        {
          "name": "",
          "type": "bool"
        }
      ],
      "payable": false,
      "stateMutability": "view",
      "type": "function"
    }
  ],
  "bytecode": "0x608060405260006001553480156200001657600080fd5b50604051620015ba380380620015ba833981018060405260408110156200003c57600080fd5b8151602083018051919392830192916401000000008111156200005e57600080fd5b820160208101848111156200007257600080fd5b81516401000000008111828201871017156200008d57600080fd5b50506002805433600160a060020a03199182161790915560008054909116600160a060020a03871617815560018190558052600460209081528151919450620000fd93507f17ef568e3e12ab5b9c7254a8d58478811de00f9e6eb34345acd53bf8fd09d3ec925084019062000106565b505050620001ab565b828054600181600116156101000203166002900490600052602060002090601f016020900481019282601f106200014957805160ff191683800117855562000179565b8280016001018555821562000179579182015b82811115620001795782518255916020019190600101906200015c565b50620001879291506200018b565b5090565b620001a891905b8082111562000187576000815560010162000192565b90565b6113ff80620001bb6000396000f3fe6080604052600436106100715760003560e01c63ffffffff168063038b2f161461007657806313af40351461013657806335c0456b14610169578063375142971461021e578063864a0d0a146102d1578063870017d91461038f578063953d2d6714610444578063f3fd43a6146104e3575b600080fd5b34801561008257600080fd5b506101346004803603604081101561009957600080fd5b8101906020810181356401000000008111156100b457600080fd5b8201836020820111156100c657600080fd5b803590602001918460018302840111640100000000831117156100e857600080fd5b91908080601f01602080910402602001604051908101604052809392919081815260200183838082843760009201919091525092955050509035600160a060020a031691506105de9050565b005b34801561014257600080fd5b506101346004803603602081101561015957600080fd5b5035600160a060020a0316610719565b34801561017557600080fd5b506101346004803603604081101561018c57600080fd5b8101906020810181356401000000008111156101a757600080fd5b8201836020820111156101b957600080fd5b803590602001918460018302840111640100000000831117156101db57600080fd5b91908080601f0160208091040260200160405190810160405280939291908181526020018383808284376000920191909152509295505091359250610799915050565b34801561022a57600080fd5b506101346004803603602081101561024157600080fd5b81019060208101813564010000000081111561025c57600080fd5b82018360208201111561026e57600080fd5b8035906020019184600183028401116401000000008311171561029057600080fd5b91908080601f016020809104026020016040519081016040528093929190818152602001838380828437600092019190915250929550610b38945050505050565b3480156102dd57600080fd5b50610134600480360360408110156102f457600080fd5b81019060208101813564010000000081111561030f57600080fd5b82018360208201111561032157600080fd5b8035906020019184600183028401116401000000008311171561034357600080fd5b91908080601f01602080910402602001604051908101604052809392919081815260200183838082843760009201919091525092955050509035600160a060020a03169150610b8a9050565b34801561039b57600080fd5b50610134600480360360408110156103b257600080fd5b8101906020810181356401000000008111156103cd57600080fd5b8201836020820111156103df57600080fd5b8035906020019184600183028401116401000000008311171561040157600080fd5b91908080601f0160208091040260200160405190810160405280939291908181526020018383808284376000920191909152509295505091359250610e28915050565b34801561045057600080fd5b5061046e6004803603602081101561046757600080fd5b503561113d565b6040805160208082528351818301528351919283929083019185019080838360005b838110156104a8578181015183820152602001610490565b50505050905090810190601f1680156104d55780820380516001836020036101000a031916815260200191505b509250505060405180910390f35b3480156104ef57600080fd5b506105966004803603602081101561050657600080fd5b81019060208101813564010000000081111561052157600080fd5b82018360208201111561053357600080fd5b8035906020019184600183028401116401000000008311171561055557600080fd5b91908080601f0160208091040260200160405190810160405280939291908181526020018383808284376000920191909152509295506111d8945050505050565b60408051978852600160a060020a0396871660208901529415158786015292151560608701529316608085015260a084019290925290151560c0830152519081900360e00190f35b600254600160a060020a031633146105f557600080fd5b81516020808401919091206000818152600390925260409091206001015483919060a860020a900460ff161515610664576040805160e560020a62461bcd02815260206004820152601460248201526000805160206113b4833981519152604482015290519081900360640190fd5b60008181526003602052604090206001548154106106cc576040805160e560020a62461bcd02815260206004820152601960248201527f56657273696f6e20697320757020746f20646f20646174652e00000000000000604482015290519081900360640190fd5b60018054600383015560028201805473ffffffffffffffffffffffffffffffffffffffff1916600160a060020a039690961695909517909455600401805460ff1916909317909255505050565b600254600160a060020a0316331461073057600080fd5b600254604051600160a060020a038084169216907f0384899bd253d83b23daa4d29aaa2efe0563d1132b43101e9ad667235aeb951b90600090a36002805473ffffffffffffffffffffffffffffffffffffffff1916600160a060020a0392909216919091179055565b600254600160a060020a031633146107b057600080fd5b81516020808401919091206000818152600390925260409091206001015483919060a860020a900460ff16151561081f576040805160e560020a62461bcd02815260206004820152601460248201526000805160206113b4833981519152604482015290519081900360640190fd5b6000818152600360205260409020600481015460ff16151561088b576040805160e560020a62461bcd02815260206004820152601d60248201527f55736572206973206e6f7420696e20757067726164652073746167652e000000604482015290519081900360640190fd5b600080546003830154825260046020819052604080842081517f9c4ae2d0000000000000000000000000000000000000000000000000000000008152602481018a905292830191825280546002600019600183161561010002019091160460448401819052600160a060020a0390941693639c4ae2d09391928a9290918291606401908590801561095d5780601f106109325761010080835404028352916020019161095d565b820191906000526020600020905b81548152906001019060200180831161094057829003601f168201915b50509350505050602060405180830381600087803b15801561097e57600080fd5b505af1158015610992573d6000803e3d6000fd5b505050506040513d60208110156109a857600080fd5b50516002830154909150600160a060020a03808316911614610a14576040805160e560020a62461bcd02815260206004820152601e60248201527f57616c6c6574206164647265737320646f6573206e6f74206d617463682e0000604482015290519081900360640190fd5b600182015482546002840154600385015460408051600160a060020a03958616602080830182905292820186905293909516606086018190526080860183905260a08087528c51908701528b517fcb51364a7acb98b4906afde0d1745cf27bb540ba2e14d591536a08876759a3f8968d969492939091829160c08301919089019080838360005b83811015610ab3578181015183820152602001610a9b565b50505050905090810190601f168015610ae05780820380516001836020036101000a031916815260200191505b50965050505050505060405180910390a16003820154825560018201805473ffffffffffffffffffffffffffffffffffffffff1916600160a060020a0392909216919091179055600401805460ff1916905550505050565b600254600160a060020a03163314610b4f57600080fd5b60018054610b629163ffffffff6112c316565b600181905560009081526004602090815260409091208251610b86928401906112dc565b5050565b600254600160a060020a03163314610ba157600080fd5b81516020808401919091206000818152600390925260409091206001015483919060a860020a900460ff1615610c21576040805160e560020a62461bcd02815260206004820152601860248201527f557365726e616d6520616c7265616479206578697374732e0000000000000000604482015290519081900360640190fd5b610c2961135a565b60e060405190810160405280600154815260200185600160a060020a031681526020016000151581526020016001151581526020016000600160a060020a03168152602001600154815260200160001515815250905080600360008481526020019081526020016000206000820151816000015560208201518160010160006101000a815481600160a060020a030219169083600160a060020a0316021790555060408201518160010160146101000a81548160ff02191690831515021790555060608201518160010160156101000a81548160ff02191690831515021790555060808201518160020160006101000a815481600160a060020a030219169083600160a060020a0316021790555060a0820151816003015560c08201518160040160006101000a81548160ff0219169083151502179055509050507ff4d5c0191b52b38292d49ae4c7633f6a49102056eddc7ac27149f4324a7b58398585600154604051808060200184600160a060020a0316600160a060020a03168152602001838152602001828103825285818151815260200191508051906020019080838360005b83811015610de5578181015183820152602001610dcd565b50505050905090810190601f168015610e125780820380516001836020036101000a031916815260200191505b5094505050505060405180910390a15050505050565b600254600160a060020a03163314610e3f57600080fd5b81516020808401919091206000818152600390925260409091206001015483919060a860020a900460ff161515610eae576040805160e560020a62461bcd02815260206004820152601460248201526000805160206113b4833981519152604482015290519081900360640190fd5b600081815260036020908152604080832083548154855260049384905282852083517f9c4ae2d0000000000000000000000000000000000000000000000000000000008152602481018a905294850193845280546002600019600183161561010002019091160460448601819052929594600160a060020a0390921693639c4ae2d09391928a9282916064019085908015610f8a5780601f10610f5f57610100808354040283529160200191610f8a565b820191906000526020600020905b815481529060010190602001808311610f6d57829003601f168201915b50509350505050602060405180830381600087803b158015610fab57600080fd5b505af1158015610fbf573d6000803e3d6000fd5b505050506040513d6020811015610fd557600080fd5b50516001830154909150600160a060020a03808316911614611041576040805160e560020a62461bcd02815260206004820152601e60248201527f57616c6c6574206164647265737320646f6573206e6f74206d617463682e0000604482015290519081900360640190fd5b7f6b8a171e4fff4fe7f0fdb83e93ff4b9ae92c403d87d9ccd66aa470688e9959ff86828460000154604051808060200184600160a060020a0316600160a060020a03168152602001838152602001828103825285818151815260200191508051906020019080838360005b838110156110c45781810151838201526020016110ac565b50505050905090810190601f1680156110f15780820380516001836020036101000a031916815260200191505b5094505050505060405180910390a150600101805474ff000000000000000000000000000000000000000019167401000000000000000000000000000000000000000017905550505050565b60046020908152600091825260409182902080548351601f6002600019610100600186161502019093169290920491820184900484028101840190945280845290918301828280156111d05780601f106111a5576101008083540402835291602001916111d0565b820191906000526020600020905b8154815290600101906020018083116111b357829003601f168201915b505050505081565b805160208083019190912060008181526003909252604082206001015482918291829182918291829189919060a860020a900460ff161515611252576040805160e560020a62461bcd02815260206004820152601460248201526000805160206113b4833981519152604482015290519081900360640190fd5b600090815260036020819052604090912080546001820154600283015493830154600490930154919d600160a060020a038083169e5060ff74010000000000000000000000000000000000000000840481169e5060a860020a90930483169c50909416995091975016945092505050565b6000828201838110156112d557600080fd5b9392505050565b828054600181600116156101000203166002900490600052602060002090601f016020900481019282601f1061131d57805160ff191683800117855561134a565b8280016001018555821561134a579182015b8281111561134a57825182559160200191906001019061132f565b50611356929150611396565b5090565b6040805160e081018252600080825260208201819052918101829052606081018290526080810182905260a0810182905260c081019190915290565b6113b091905b80821115611356576000815560010161139c565b9056fe5573657220646f6573206e6f742065786973742e000000000000000000000000a165627a7a72305820533f81c194cd10943175e41105d76922e069ba65a6df0bdc63f8fcaa4366f6700029",
  "source": "pragma solidity >0.4.99 <0.6.0;\n\nimport \"./SafeMath.sol\";\n\n// Factory interface\ninterface Factory {\n  function deploy(bytes calldata code, uint256 salt) external returns(address);\n}\n\n// Datastore contract\ncontract VersionControl {\n\n  using SafeMath for uint256;\n\n  event DeployedWallet(string username, address contractAddress, uint256 version);\n  event UpgradedWallet(string username, address oldContractAddress, uint256 oldVersion, address newContractAddress, uint256 newVersion);\n  event NewUser(string username, address contractAddress, uint256 version);\n  event OwnershipChanged(address indexed oldOwner, address indexed newOwner);\n\n  Factory factory;            // Factory contract address\n  uint256 currentVersion = 0; // Keep track of the current version\n  address owner;\n\n  // struct to hold user data\n  struct User {\n    uint256 bytecodeVersion;\n    address walletAddress;\n    bool deployed;\n    bool exists;\n    address upgradeAddress;\n    uint256 upgradeVersion;\n    bool upgrading;\n  }\n\n  // mapping of usernames\n  mapping(bytes32 => User) users;\n\n  // mapping of bytecodes to keep track of versions\n  mapping(uint256 => bytes) public bytecodeMap;\n\n  constructor(address _address, bytes memory _bytecode) public {\n    owner = msg.sender;\n    factory = Factory(_address);\n    currentVersion = 0;\n    bytecodeMap[currentVersion] = _bytecode;\n  }\n\n  // owner modifier\n  modifier onlyOwner() {\n    require(msg.sender == owner);\n    _;\n  }\n\n  // Transfering ownership\n  function setOwner(address _owner) public {\n    require(msg.sender == owner);\n    emit OwnershipChanged(owner, _owner);\n    owner = _owner;\n  }\n\n  // owner can upgrade wallet contract\n  function updateBytecode(bytes memory _bytecode) public onlyOwner {\n    currentVersion = currentVersion.add(1);\n    bytecodeMap[currentVersion] = _bytecode;\n  }\n\n  // deploying a wallet contract. user will supply salt\n  function deployWallet(string memory _username, uint256 salt) public onlyOwner {\n    bytes memory usernameBytes = bytes(_username);\n    bytes32 usernameKey = keccak256(usernameBytes);\n\n    require(users[usernameKey].exists, \"User does not exist.\");\n\n    User storage user = users[usernameKey];\n\n    address walletAddress = factory.deploy(bytecodeMap[user.bytecodeVersion], salt);\n\n    // Check wallet address for security\n    require(walletAddress == user.walletAddress, \"Wallet address does not match.\");\n\n    emit DeployedWallet(_username, walletAddress, user.bytecodeVersion);\n\n    user.deployed = true;\n\n  }\n\n  // deploying an upgraded wallet contract. user will supply salt\n  function upgradeWallet(string memory _username, uint256 salt) public onlyOwner {\n    bytes memory usernameBytes = bytes(_username);\n    bytes32 usernameKey = keccak256(usernameBytes);\n\n    require(users[usernameKey].exists, \"User does not exist.\");\n\n    User storage user = users[usernameKey];\n\n    require(user.upgrading, \"User is not in upgrade stage.\");\n\n    address walletAddress = factory.deploy(bytecodeMap[user.upgradeVersion], salt);\n\n    // Check wallet address for security\n    require(walletAddress == user.upgradeAddress, \"Wallet address does not match.\");\n\n    emit UpgradedWallet(_username, user.walletAddress, user.bytecodeVersion, user.upgradeAddress, user.upgradeVersion);\n\n    user.bytecodeVersion = user.upgradeVersion;\n    user.walletAddress = walletAddress;\n    user.upgrading = false;\n\n  }\n\n  // adding a user to our database/mapping\n  function addUser(string memory _username, address _address) public onlyOwner {\n\n    bytes memory usernameBytes = bytes(_username);\n    bytes32 usernameKey = keccak256(usernameBytes);\n\n    require(!users[usernameKey].exists, \"Username already exists.\");\n\n    User memory newUser = User({\n        bytecodeVersion: currentVersion,\n        walletAddress: _address,\n        deployed: false,\n        exists: true,\n        upgradeAddress: address(0x0),\n        upgradeVersion: currentVersion,\n        upgrading: false\n      });\n\n    users[usernameKey] = newUser;\n\n    emit NewUser(_username, _address, currentVersion);\n  }\n\n  // puts the user in upgrade mode if there is a new wallet version\n  // and user wants to upgrade.\n  // during upgrade stage we keep track of previous wallet and new wallet\n  function upgradeUser(string memory _username, address _address) public onlyOwner {\n    bytes memory usernameBytes = bytes(_username);\n    bytes32 usernameKey = keccak256(usernameBytes);\n\n    require(users[usernameKey].exists, \"User does not exist.\");\n\n    User storage user = users[usernameKey];\n\n    require(user.bytecodeVersion < currentVersion, \"Version is up to do date.\");\n\n    user.upgradeVersion = currentVersion;\n    user.upgradeAddress = _address;\n    user.upgrading = true;\n  }\n\n  // public function to view a user's data\n  function viewUser(string memory _username) public view returns\n  (uint256, address, bool, bool, address, uint256, bool) {\n    bytes memory usernameBytes = bytes(_username);\n    bytes32 usernameKey = keccak256(usernameBytes);\n\n    require(users[usernameKey].exists, \"User does not exist.\");\n\n    User storage user = users[usernameKey];\n\n    return(user.bytecodeVersion,\n        user.walletAddress,\n        user.deployed,\n        user.exists,\n        user.upgradeAddress,\n        user.upgradeVersion,\n        user.upgrading\n    );\n  }\n}\n",
  "sourcePath": "/home/aery/blockchain/advanced_contracts/assignment/contracts/VersionControl.sol",
  "compiler": {
    "name": "solc",
    "version": "0.5.0-nightly.2018.11.5+commit.88aee34c.Emscripten.clang"
  },
  "schemaVersion": "3.0.1",
  "updatedAt": "2019-04-04T17:11:36.837Z",
  "devdoc": {
    "methods": {}
  },
  "userdoc": {
    "methods": {}
  }
}