{
  "contractName": "Wallet",
  "abi": [
    {
      "constant": true,
      "inputs": [],
      "name": "owner",
      "outputs": [
        {
          "name": "",
          "type": "address"
        }
      ],
      "payable": false,
      "stateMutability": "view",
      "type": "function"
    },
    {
      "inputs": [
        {
          "name": "_owner",
          "type": "address"
        }
      ],
      "payable": false,
      "stateMutability": "nonpayable",
      "type": "constructor"
    },
    {
      "payable": true,
      "stateMutability": "payable",
      "type": "fallback"
    },
    {
      "anonymous": false,
      "inputs": [
        {
          "indexed": true,
          "name": "from",
          "type": "address"
        },
        {
          "indexed": true,
          "name": "to",
          "type": "address"
        },
        {
          "indexed": false,
          "name": "amount",
          "type": "uint256"
        }
      ],
      "name": "Transfer",
      "type": "event"
    },
    {
      "anonymous": false,
      "inputs": [
        {
          "indexed": true,
          "name": "from",
          "type": "address"
        },
        {
          "indexed": true,
          "name": "to",
          "type": "address"
        },
        {
          "indexed": false,
          "name": "amount",
          "type": "uint256"
        }
      ],
      "name": "Withdraw",
      "type": "event"
    },
    {
      "anonymous": false,
      "inputs": [
        {
          "indexed": true,
          "name": "oldOwner",
          "type": "address"
        },
        {
          "indexed": true,
          "name": "newOwner",
          "type": "address"
        }
      ],
      "name": "OwnershipChanged",
      "type": "event"
    },
    {
      "constant": false,
      "inputs": [
        {
          "name": "_owner",
          "type": "address"
        }
      ],
      "name": "setOwner",
      "outputs": [],
      "payable": false,
      "stateMutability": "nonpayable",
      "type": "function"
    },
    {
      "constant": false,
      "inputs": [
        {
          "name": "receiver",
          "type": "address"
        },
        {
          "name": "amount",
          "type": "uint256"
        }
      ],
      "name": "transfer",
      "outputs": [
        {
          "name": "",
          "type": "bool"
        }
      ],
      "payable": false,
      "stateMutability": "nonpayable",
      "type": "function"
    },
    {
      "constant": false,
      "inputs": [],
      "name": "withdraw",
      "outputs": [],
      "payable": false,
      "stateMutability": "nonpayable",
      "type": "function"
    },
    {
      "constant": true,
      "inputs": [],
      "name": "totalBalance",
      "outputs": [
        {
          "name": "",
          "type": "uint256"
        }
      ],
      "payable": false,
      "stateMutability": "view",
      "type": "function"
    }
  ],
  "bytecode": "0x608060405234801561001057600080fd5b5060405160208061039a8339810180604052602081101561003057600080fd5b5051600080546001600160a01b039092166001600160a01b0319909216919091179055610338806100626000396000f3fe60806040526004361061004a5760003560e01c806313af40351461004c5780633ccfd60b1461007f5780638da5cb5b14610094578063a9059cbb146100c5578063ad7a672f14610112575b005b34801561005857600080fd5b5061004a6004803603602081101561006f57600080fd5b50356001600160a01b0316610139565b34801561008b57600080fd5b5061004a6101ab565b3480156100a057600080fd5b506100a9610252565b604080516001600160a01b039092168252519081900360200190f35b3480156100d157600080fd5b506100fe600480360360408110156100e857600080fd5b506001600160a01b038135169060200135610261565b604080519115158252519081900360200190f35b34801561011e57600080fd5b50610127610307565b60408051918252519081900360200190f35b6000546001600160a01b0316331461015057600080fd5b600080546040516001600160a01b03808516939216917f0384899bd253d83b23daa4d29aaa2efe0563d1132b43101e9ad667235aeb951b91a3600080546001600160a01b0319166001600160a01b0392909216919091179055565b6000546001600160a01b031633146101c257600080fd5b3031806101ce57600080fd5b600080546040516001600160a01b0390911691303180156108fc02929091818181858888f19350505050158015610209573d6000803e3d6000fd5b506000546040805183815290516001600160a01b039092169130917f9b1bfa7fa9ee420a16e124f794c35ac9f90472acc99140eb2f6447c714cad8eb919081900360200190a350565b6000546001600160a01b031681565b600080546001600160a01b0316331461027957600080fd5b303182111561028757600080fd5b6040516001600160a01b0384169083156108fc029084906000818181858888f193505050501580156102bd573d6000803e3d6000fd5b506040805183815290516001600160a01b0385169130917fddf252ad1be2c89b69c2b068fc378daa952ba7f163c4a11628f55a4df523b3ef9181900360200190a350600192915050565b30319056fea165627a7a72305820aa7ebc11f89bb3f338d21e482502e3ae3d8c3ce8089c03660a734df74535237b0029",
  "source": "pragma solidity 0.5.6;\n\ncontract Wallet {\n\n  event Transfer(address indexed from, address indexed to, uint amount);\n  event Withdraw(address indexed from, address indexed to, uint amount);\n  event OwnershipChanged(address indexed oldOwner, address indexed newOwner);\n\n  address payable public owner;\n\n  // Makes us(dapp owner) owner initially. We will\n  // do transactions on User's behalf until\n  // they take ownership of this contract\n  constructor(address payable _owner) public {\n    owner = _owner;\n  }\n\n  // owner modifier\n  modifier onlyOwner() {\n    require(msg.sender == owner);\n    _;\n  }\n\n  // Upon user request, we can set them as _owner\n  // and they have control of their wallet\n  function setOwner(address payable _owner) public {\n    require(msg.sender == owner);\n    emit OwnershipChanged(owner, _owner);\n    owner = _owner;\n  }\n\n  // Transfer funds to another address\n  function transfer(address payable receiver, uint256 amount) public onlyOwner returns (bool) {\n    require(amount <= address(this).balance);\n    receiver.transfer(amount);\n    emit Transfer(address(this), receiver, amount);\n    return true;\n  }\n\n  // Withdraw all funds to owner\n  function withdraw() public onlyOwner {\n    uint256 balance = address(this).balance;\n    require(balance > 0);\n    owner.transfer(address(this).balance);\n    emit Withdraw(address(this), owner, balance);\n  }\n\n  // View total balance\n  function totalBalance() public view returns (uint256) {\n      return address(this).balance;\n  }\n\n  // Some basic wallet functions\n  // -> Can upgrade wallet with more functions\n  //    - daily limits\n  //    - multi sig\n  //    - handle erc20 tokens\n  //    - I didn't implement these yet because testing takes time\n\n  function() payable external {}\n}\n",
  "sourcePath": "/home/aery/blockchain/advanced_contracts/assignment/contracts/Wallet.sol",
  "compiler": {
    "name": "solc",
    "version": "0.5.6+commit.b259423e.Emscripten.clang"
  },
  "schemaVersion": "3.0.1",
  "updatedAt": "2019-04-03T22:06:23.818Z",
  "devdoc": {
    "methods": {}
  },
  "userdoc": {
    "methods": {}
  }
}