{
  "contractName": "Wallet",
  "abi": [
    {
      "constant": true,
      "inputs": [],
      "name": "deployThreshold",
      "outputs": [
        {
          "name": "",
          "type": "uint256"
        }
      ],
      "payable": false,
      "stateMutability": "view",
      "type": "function"
    },
    {
      "constant": true,
      "inputs": [],
      "name": "owner",
      "outputs": [
        {
          "name": "",
          "type": "address"
        }
      ],
      "payable": false,
      "stateMutability": "view",
      "type": "function"
    },
    {
      "constant": true,
      "inputs": [],
      "name": "deployFee",
      "outputs": [
        {
          "name": "",
          "type": "uint256"
        }
      ],
      "payable": false,
      "stateMutability": "view",
      "type": "function"
    },
    {
      "inputs": [
        {
          "name": "_owner",
          "type": "address"
        }
      ],
      "payable": false,
      "stateMutability": "nonpayable",
      "type": "constructor"
    },
    {
      "payable": true,
      "stateMutability": "payable",
      "type": "fallback"
    },
    {
      "anonymous": false,
      "inputs": [
        {
          "indexed": true,
          "name": "from",
          "type": "address"
        },
        {
          "indexed": true,
          "name": "to",
          "type": "address"
        },
        {
          "indexed": false,
          "name": "amount",
          "type": "uint256"
        }
      ],
      "name": "Transfer",
      "type": "event"
    },
    {
      "anonymous": false,
      "inputs": [
        {
          "indexed": true,
          "name": "from",
          "type": "address"
        },
        {
          "indexed": true,
          "name": "to",
          "type": "address"
        },
        {
          "indexed": false,
          "name": "amount",
          "type": "uint256"
        }
      ],
      "name": "Withdraw",
      "type": "event"
    },
    {
      "anonymous": false,
      "inputs": [
        {
          "indexed": true,
          "name": "oldOwner",
          "type": "address"
        },
        {
          "indexed": true,
          "name": "newOwner",
          "type": "address"
        }
      ],
      "name": "OwnershipChanged",
      "type": "event"
    },
    {
      "constant": false,
      "inputs": [
        {
          "name": "_owner",
          "type": "address"
        }
      ],
      "name": "setOwner",
      "outputs": [],
      "payable": false,
      "stateMutability": "nonpayable",
      "type": "function"
    },
    {
      "constant": false,
      "inputs": [
        {
          "name": "receiver",
          "type": "address"
        },
        {
          "name": "amount",
          "type": "uint256"
        }
      ],
      "name": "transfer",
      "outputs": [
        {
          "name": "",
          "type": "bool"
        }
      ],
      "payable": false,
      "stateMutability": "nonpayable",
      "type": "function"
    },
    {
      "constant": false,
      "inputs": [],
      "name": "withdraw",
      "outputs": [],
      "payable": false,
      "stateMutability": "nonpayable",
      "type": "function"
    },
    {
      "constant": true,
      "inputs": [],
      "name": "totalBalance",
      "outputs": [
        {
          "name": "",
          "type": "uint256"
        }
      ],
      "payable": false,
      "stateMutability": "view",
      "type": "function"
    }
  ],
  "bytecode": "0x60806040526207a1206001556207f32860025534801561001e57600080fd5b506040516020806104428339810180604052602081101561003e57600080fd5b505160025430311161004f57600080fd5b600154604051329180156108fc02916000818181858888f1935050505015801561007d573d6000803e3d6000fd5b50600080546001600160a01b039092166001600160a01b0319909216919091179055610394806100ae6000396000f3fe6080604052600436106100705760003560e01c80638da5cb5b1161004e5780638da5cb5b146100e1578063a9059cbb14610112578063ad7a672f1461015f578063eb2a5d2c1461017457610070565b806313af4035146100725780631ff7a505146100a55780633ccfd60b146100cc575b005b34801561007e57600080fd5b506100706004803603602081101561009557600080fd5b50356001600160a01b0316610189565b3480156100b157600080fd5b506100ba6101fb565b60408051918252519081900360200190f35b3480156100d857600080fd5b50610070610201565b3480156100ed57600080fd5b506100f66102a8565b604080516001600160a01b039092168252519081900360200190f35b34801561011e57600080fd5b5061014b6004803603604081101561013557600080fd5b506001600160a01b0381351690602001356102b7565b604080519115158252519081900360200190f35b34801561016b57600080fd5b506100ba61035d565b34801561018057600080fd5b506100ba610362565b6000546001600160a01b031633146101a057600080fd5b600080546040516001600160a01b03808516939216917f0384899bd253d83b23daa4d29aaa2efe0563d1132b43101e9ad667235aeb951b91a3600080546001600160a01b0319166001600160a01b0392909216919091179055565b60025481565b6000546001600160a01b0316331461021857600080fd5b30318061022457600080fd5b600080546040516001600160a01b0390911691303180156108fc02929091818181858888f1935050505015801561025f573d6000803e3d6000fd5b506000546040805183815290516001600160a01b039092169130917f9b1bfa7fa9ee420a16e124f794c35ac9f90472acc99140eb2f6447c714cad8eb919081900360200190a350565b6000546001600160a01b031681565b600080546001600160a01b031633146102cf57600080fd5b30318211156102dd57600080fd5b6040516001600160a01b0384169083156108fc029084906000818181858888f19350505050158015610313573d6000803e3d6000fd5b506040805183815290516001600160a01b0385169130917fddf252ad1be2c89b69c2b068fc378daa952ba7f163c4a11628f55a4df523b3ef9181900360200190a350600192915050565b303190565b6001548156fea165627a7a723058206cc604e196178ea108b1f1209e225f4c475bf8feab4df358000fea09c38c29f80029",
  "source": "pragma solidity 0.5.7;\n\ncontract Wallet {\n\n  event Transfer(address indexed from, address indexed to, uint amount);\n  event Withdraw(address indexed from, address indexed to, uint amount);\n  event OwnershipChanged(address indexed oldOwner, address indexed newOwner);\n\n  address payable public owner;\n  uint256 public deployFee = 500000;      // Deploy fee is 500,000 wei. (~360 000 wei for storage + deploy wallet)\n  uint256 public deployThreshold = 521000;// Contract needs to have at least 521,000 wei to pay for transfer\n\n  // Makes the user account the owner\n  // Also refunds the deployer the gas used to\n  // deploy this contract from its own funds\n  constructor(address payable _owner) public {\n    require(address(this).balance > deployThreshold);\n    tx.origin.transfer(deployFee);\n    owner = _owner;\n  }\n\n  // owner modifier\n  modifier onlyOwner() {\n    require(msg.sender == owner);\n    _;\n  }\n\n  // Upon user request, we can set them as _owner\n  // and they have control of their wallet\n  function setOwner(address payable _owner) public {\n    require(msg.sender == owner);\n    emit OwnershipChanged(owner, _owner);\n    owner = _owner;\n  }\n\n  // Transfer funds to another address\n  function transfer(address payable receiver, uint256 amount) public onlyOwner returns (bool) {\n    require(amount <= address(this).balance);\n    receiver.transfer(amount);\n    emit Transfer(address(this), receiver, amount);\n    return true;\n  }\n\n  // Withdraw all funds to owner account\n  function withdraw() public onlyOwner {\n    uint256 balance = address(this).balance;\n    require(balance > 0);\n    owner.transfer(address(this).balance);\n    emit Withdraw(address(this), owner, balance);\n  }\n\n  // View total balance\n  function totalBalance() public view returns (uint256) {\n      return address(this).balance;\n  }\n\n  // Some basic wallet functions\n  // -> Can upgrade wallet with more functions\n  //    - daily limits\n  //    - multi sig\n  //    - handle erc20 tokens\n\n  function() payable external {}\n}\n",
  "sourcePath": "/home/aery/blockchain/dapp2/keyless-wallet/contracts/Wallet.sol",
  "compiler": {
    "name": "solc",
    "version": "0.5.7+commit.6da8b019.Emscripten.clang"
  },
  "schemaVersion": "3.0.1",
  "updatedAt": "2019-04-21T07:32:42.542Z",
  "devdoc": {
    "methods": {}
  },
  "userdoc": {
    "methods": {}
  }
}